{
  "address": "0xf87d4c3c91555fecfe684fa58dd26a817c75892b",
  "abi": [
    {
      "inputs": [
        {
          "internalType": "contract FNS",
          "name": "_fns",
          "type": "address"
        },
        {
          "internalType": "bytes32",
          "name": "_baseNode",
          "type": "bytes32"
        }
      ],
      "stateMutability": "nonpayable",
      "type": "constructor"
    },
    {
      "anonymous": false,
      "inputs": [
        {
          "indexed": true,
          "internalType": "address",
          "name": "owner",
          "type": "address"
        },
        {
          "indexed": true,
          "internalType": "address",
          "name": "approved",
          "type": "address"
        },
        {
          "indexed": true,
          "internalType": "uint256",
          "name": "tokenId",
          "type": "uint256"
        }
      ],
      "name": "Approval",
      "type": "event"
    },
    {
      "anonymous": false,
      "inputs": [
        {
          "indexed": true,
          "internalType": "address",
          "name": "owner",
          "type": "address"
        },
        {
          "indexed": true,
          "internalType": "address",
          "name": "operator",
          "type": "address"
        },
        {
          "indexed": false,
          "internalType": "bool",
          "name": "approved",
          "type": "bool"
        }
      ],
      "name": "ApprovalForAll",
      "type": "event"
    },
    {
      "anonymous": false,
      "inputs": [
        {
          "indexed": true,
          "internalType": "address",
          "name": "controller",
          "type": "address"
        }
      ],
      "name": "ControllerAdded",
      "type": "event"
    },
    {
      "anonymous": false,
      "inputs": [
        {
          "indexed": true,
          "internalType": "address",
          "name": "controller",
          "type": "address"
        }
      ],
      "name": "ControllerRemoved",
      "type": "event"
    },
    {
      "anonymous": false,
      "inputs": [
        {
          "indexed": true,
          "internalType": "uint256",
          "name": "id",
          "type": "uint256"
        },
        {
          "indexed": true,
          "internalType": "address",
          "name": "owner",
          "type": "address"
        },
        {
          "indexed": false,
          "internalType": "uint256",
          "name": "expires",
          "type": "uint256"
        }
      ],
      "name": "NameMigrated",
      "type": "event"
    },
    {
      "anonymous": false,
      "inputs": [
        {
          "indexed": true,
          "internalType": "uint256",
          "name": "id",
          "type": "uint256"
        },
        {
          "indexed": true,
          "internalType": "address",
          "name": "owner",
          "type": "address"
        },
        {
          "indexed": false,
          "internalType": "uint256",
          "name": "expires",
          "type": "uint256"
        }
      ],
      "name": "NameRegistered",
      "type": "event"
    },
    {
      "anonymous": false,
      "inputs": [
        {
          "indexed": true,
          "internalType": "uint256",
          "name": "id",
          "type": "uint256"
        },
        {
          "indexed": false,
          "internalType": "uint256",
          "name": "expires",
          "type": "uint256"
        }
      ],
      "name": "NameRenewed",
      "type": "event"
    },
    {
      "anonymous": false,
      "inputs": [
        {
          "indexed": true,
          "internalType": "address",
          "name": "previousOwner",
          "type": "address"
        },
        {
          "indexed": true,
          "internalType": "address",
          "name": "newOwner",
          "type": "address"
        }
      ],
      "name": "OwnershipTransferred",
      "type": "event"
    },
    {
      "anonymous": false,
      "inputs": [
        {
          "indexed": true,
          "internalType": "address",
          "name": "from",
          "type": "address"
        },
        {
          "indexed": true,
          "internalType": "address",
          "name": "to",
          "type": "address"
        },
        {
          "indexed": true,
          "internalType": "uint256",
          "name": "tokenId",
          "type": "uint256"
        }
      ],
      "name": "Transfer",
      "type": "event"
    },
    {
      "inputs": [],
      "name": "GRACE_PERIOD",
      "outputs": [
        {
          "internalType": "uint256",
          "name": "",
          "type": "uint256"
        }
      ],
      "stateMutability": "view",
      "type": "function"
    },
    {
      "inputs": [
        {
          "internalType": "address",
          "name": "controller",
          "type": "address"
        }
      ],
      "name": "addController",
      "outputs": [],
      "stateMutability": "nonpayable",
      "type": "function"
    },
    {
      "inputs": [
        {
          "internalType": "address",
          "name": "to",
          "type": "address"
        },
        {
          "internalType": "uint256",
          "name": "tokenId",
          "type": "uint256"
        }
      ],
      "name": "approve",
      "outputs": [],
      "stateMutability": "nonpayable",
      "type": "function"
    },
    {
      "inputs": [
        {
          "internalType": "uint256",
          "name": "id",
          "type": "uint256"
        }
      ],
      "name": "available",
      "outputs": [
        {
          "internalType": "bool",
          "name": "",
          "type": "bool"
        }
      ],
      "stateMutability": "view",
      "type": "function"
    },
    {
      "inputs": [
        {
          "internalType": "address",
          "name": "owner",
          "type": "address"
        }
      ],
      "name": "balanceOf",
      "outputs": [
        {
          "internalType": "uint256",
          "name": "",
          "type": "uint256"
        }
      ],
      "stateMutability": "view",
      "type": "function"
    },
    {
      "inputs": [],
      "name": "baseNode",
      "outputs": [
        {
          "internalType": "bytes32",
          "name": "",
          "type": "bytes32"
        }
      ],
      "stateMutability": "view",
      "type": "function"
    },
    {
      "inputs": [
        {
          "internalType": "address",
          "name": "",
          "type": "address"
        }
      ],
      "name": "controllers",
      "outputs": [
        {
          "internalType": "bool",
          "name": "",
          "type": "bool"
        }
      ],
      "stateMutability": "view",
      "type": "function"
    },
    {
      "inputs": [
        {
          "internalType": "uint256",
          "name": "",
          "type": "uint256"
        }
      ],
      "name": "expiries",
      "outputs": [
        {
          "internalType": "uint256",
          "name": "",
          "type": "uint256"
        }
      ],
      "stateMutability": "view",
      "type": "function"
    },
    {
      "inputs": [],
      "name": "fns",
      "outputs": [
        {
          "internalType": "contract FNS",
          "name": "",
          "type": "address"
        }
      ],
      "stateMutability": "view",
      "type": "function"
    },
    {
      "inputs": [
        {
          "internalType": "uint256",
          "name": "tokenId",
          "type": "uint256"
        }
      ],
      "name": "getApproved",
      "outputs": [
        {
          "internalType": "address",
          "name": "",
          "type": "address"
        }
      ],
      "stateMutability": "view",
      "type": "function"
    },
    {
      "inputs": [
        {
          "internalType": "bytes32",
          "name": "node",
          "type": "bytes32"
        }
      ],
      "name": "getIdByNode",
      "outputs": [
        {
          "internalType": "uint256",
          "name": "id",
          "type": "uint256"
        }
      ],
      "stateMutability": "view",
      "type": "function"
    },
    {
      "inputs": [
        {
          "internalType": "bytes32",
          "name": "node",
          "type": "bytes32"
        }
      ],
      "name": "getNameByNode",
      "outputs": [
        {
          "internalType": "string",
          "name": "",
          "type": "string"
        }
      ],
      "stateMutability": "view",
      "type": "function"
    },
    {
      "inputs": [
        {
          "internalType": "address",
          "name": "owner",
          "type": "address"
        },
        {
          "internalType": "address",
          "name": "operator",
          "type": "address"
        }
      ],
      "name": "isApprovedForAll",
      "outputs": [
        {
          "internalType": "bool",
          "name": "",
          "type": "bool"
        }
      ],
      "stateMutability": "view",
      "type": "function"
    },
    {
      "inputs": [],
      "name": "name",
      "outputs": [
        {
          "internalType": "string",
          "name": "",
          "type": "string"
        }
      ],
      "stateMutability": "view",
      "type": "function"
    },
    {
      "inputs": [
        {
          "internalType": "uint256",
          "name": "id",
          "type": "uint256"
        }
      ],
      "name": "nameExpires",
      "outputs": [
        {
          "internalType": "uint256",
          "name": "",
          "type": "uint256"
        }
      ],
      "stateMutability": "view",
      "type": "function"
    },
    {
      "inputs": [
        {
          "internalType": "uint256",
          "name": "id",
          "type": "uint256"
        }
      ],
      "name": "nameOf",
      "outputs": [
        {
          "internalType": "string",
          "name": "",
          "type": "string"
        }
      ],
      "stateMutability": "view",
      "type": "function"
    },
    {
      "inputs": [],
      "name": "owner",
      "outputs": [
        {
          "internalType": "address",
          "name": "",
          "type": "address"
        }
      ],
      "stateMutability": "view",
      "type": "function"
    },
    {
      "inputs": [
        {
          "internalType": "uint256",
          "name": "tokenId",
          "type": "uint256"
        }
      ],
      "name": "ownerOf",
      "outputs": [
        {
          "internalType": "address",
          "name": "",
          "type": "address"
        }
      ],
      "stateMutability": "view",
      "type": "function"
    },
    {
      "inputs": [
        {
          "internalType": "uint256",
          "name": "id",
          "type": "uint256"
        },
        {
          "internalType": "address",
          "name": "_owner",
          "type": "address"
        }
      ],
      "name": "reclaim",
      "outputs": [],
      "stateMutability": "nonpayable",
      "type": "function"
    },
    {
      "inputs": [
        {
          "internalType": "string",
          "name": "_name",
          "type": "string"
        },
        {
          "internalType": "address",
          "name": "_owner",
          "type": "address"
        },
        {
          "internalType": "uint256",
          "name": "duration",
          "type": "uint256"
        },
        {
          "internalType": "address",
          "name": "resolver",
          "type": "address"
        }
      ],
      "name": "register",
      "outputs": [
        {
          "internalType": "uint256",
          "name": "",
          "type": "uint256"
        }
      ],
      "stateMutability": "nonpayable",
      "type": "function"
    },
    {
      "inputs": [
        {
          "internalType": "string",
          "name": "_name",
          "type": "string"
        },
        {
          "internalType": "address",
          "name": "_owner",
          "type": "address"
        },
        {
          "internalType": "uint256",
          "name": "duration",
          "type": "uint256"
        }
      ],
      "name": "registerOnly",
      "outputs": [
        {
          "internalType": "uint256",
          "name": "",
          "type": "uint256"
        }
      ],
      "stateMutability": "nonpayable",
      "type": "function"
    },
    {
      "inputs": [
        {
          "internalType": "address",
          "name": "controller",
          "type": "address"
        }
      ],
      "name": "removeController",
      "outputs": [],
      "stateMutability": "nonpayable",
      "type": "function"
    },
    {
      "inputs": [
        {
          "internalType": "uint256",
          "name": "id",
          "type": "uint256"
        },
        {
          "internalType": "uint256",
          "name": "duration",
          "type": "uint256"
        }
      ],
      "name": "renew",
      "outputs": [
        {
          "internalType": "uint256",
          "name": "",
          "type": "uint256"
        }
      ],
      "stateMutability": "nonpayable",
      "type": "function"
    },
    {
      "inputs": [],
      "name": "renounceOwnership",
      "outputs": [],
      "stateMutability": "nonpayable",
      "type": "function"
    },
    {
      "inputs": [
        {
          "internalType": "address",
          "name": "from",
          "type": "address"
        },
        {
          "internalType": "address",
          "name": "to",
          "type": "address"
        },
        {
          "internalType": "uint256",
          "name": "tokenId",
          "type": "uint256"
        }
      ],
      "name": "safeTransferFrom",
      "outputs": [],
      "stateMutability": "nonpayable",
      "type": "function"
    },
    {
      "inputs": [
        {
          "internalType": "address",
          "name": "from",
          "type": "address"
        },
        {
          "internalType": "address",
          "name": "to",
          "type": "address"
        },
        {
          "internalType": "uint256",
          "name": "tokenId",
          "type": "uint256"
        },
        {
          "internalType": "bytes",
          "name": "data",
          "type": "bytes"
        }
      ],
      "name": "safeTransferFrom",
      "outputs": [],
      "stateMutability": "nonpayable",
      "type": "function"
    },
    {
      "inputs": [
        {
          "internalType": "address",
          "name": "operator",
          "type": "address"
        },
        {
          "internalType": "bool",
          "name": "approved",
          "type": "bool"
        }
      ],
      "name": "setApprovalForAll",
      "outputs": [],
      "stateMutability": "nonpayable",
      "type": "function"
    },
    {
      "inputs": [
        {
          "internalType": "string",
          "name": "baseURI",
          "type": "string"
        }
      ],
      "name": "setBaseURI",
      "outputs": [],
      "stateMutability": "nonpayable",
      "type": "function"
    },
    {
      "inputs": [
        {
          "internalType": "address",
          "name": "resolver",
          "type": "address"
        }
      ],
      "name": "setResolver",
      "outputs": [],
      "stateMutability": "nonpayable",
      "type": "function"
    },
    {
      "inputs": [
        {
          "internalType": "bytes4",
          "name": "interfaceId",
          "type": "bytes4"
        }
      ],
      "name": "supportsInterface",
      "outputs": [
        {
          "internalType": "bool",
          "name": "",
          "type": "bool"
        }
      ],
      "stateMutability": "view",
      "type": "function"
    },
    {
      "inputs": [],
      "name": "symbol",
      "outputs": [
        {
          "internalType": "string",
          "name": "",
          "type": "string"
        }
      ],
      "stateMutability": "view",
      "type": "function"
    },
    {
      "inputs": [
        {
          "internalType": "uint256",
          "name": "index",
          "type": "uint256"
        }
      ],
      "name": "tokenByIndex",
      "outputs": [
        {
          "internalType": "uint256",
          "name": "",
          "type": "uint256"
        }
      ],
      "stateMutability": "view",
      "type": "function"
    },
    {
      "inputs": [
        {
          "internalType": "address",
          "name": "owner",
          "type": "address"
        },
        {
          "internalType": "uint256",
          "name": "index",
          "type": "uint256"
        }
      ],
      "name": "tokenOfOwnerByIndex",
      "outputs": [
        {
          "internalType": "uint256",
          "name": "",
          "type": "uint256"
        }
      ],
      "stateMutability": "view",
      "type": "function"
    },
    {
      "inputs": [
        {
          "internalType": "uint256",
          "name": "tokenId",
          "type": "uint256"
        }
      ],
      "name": "tokenURI",
      "outputs": [
        {
          "internalType": "string",
          "name": "",
          "type": "string"
        }
      ],
      "stateMutability": "view",
      "type": "function"
    },
    {
      "inputs": [],
      "name": "totalSupply",
      "outputs": [
        {
          "internalType": "uint256",
          "name": "",
          "type": "uint256"
        }
      ],
      "stateMutability": "view",
      "type": "function"
    },
    {
      "inputs": [
        {
          "internalType": "address",
          "name": "from",
          "type": "address"
        },
        {
          "internalType": "address",
          "name": "to",
          "type": "address"
        },
        {
          "internalType": "uint256",
          "name": "tokenId",
          "type": "uint256"
        }
      ],
      "name": "transferFrom",
      "outputs": [],
      "stateMutability": "nonpayable",
      "type": "function"
    },
    {
      "inputs": [
        {
          "internalType": "address",
          "name": "newOwner",
          "type": "address"
        }
      ],
      "name": "transferOwnership",
      "outputs": [],
      "stateMutability": "nonpayable",
      "type": "function"
    }
  ],
  "transactionHash": "0x8b843606f4b091a09e86942d3dd15c0694856cf3eadec69b3f7e19e238c523e3",
  "args": [
    "0x889d4f6667ab1aa0a77bc8befbfc9dca5d6ead3d",
    "0x78f6b1389af563cc5c91f234ea46b055e49658d8b999eeb9e0baef7dbbc93fdb"
  ],
  "numDeployments": 1,
  "solcInputHash": "9c7f60991da7da5565e08ae041e1e2a6",
  "bytecode": "0x60806040523480156200001157600080fd5b50604051620056f5380380620056f58339818101604052810190620000379190620002c0565b6040518060400160405280600381526020017f464e5300000000000000000000000000000000000000000000000000000000008152506040518060400160405280600381526020017f464e5300000000000000000000000000000000000000000000000000000000008152508160009081620000b4919062000581565b508060019081620000c6919062000581565b505050620000e9620000dd6200013960201b60201c565b6200014160201b60201c565b81600c60006101000a81548173ffffffffffffffffffffffffffffffffffffffff021916908373ffffffffffffffffffffffffffffffffffffffff16021790555080600d81905550505062000668565b600033905090565b6000600a60009054906101000a900473ffffffffffffffffffffffffffffffffffffffff16905081600a60006101000a81548173ffffffffffffffffffffffffffffffffffffffff021916908373ffffffffffffffffffffffffffffffffffffffff1602179055508173ffffffffffffffffffffffffffffffffffffffff168173ffffffffffffffffffffffffffffffffffffffff167f8be0079c531659141344cd1fd0a4f28419497f9722a3daafe3b4186f6b6457e060405160405180910390a35050565b600080fd5b600073ffffffffffffffffffffffffffffffffffffffff82169050919050565b600062000239826200020c565b9050919050565b60006200024d826200022c565b9050919050565b6200025f8162000240565b81146200026b57600080fd5b50565b6000815190506200027f8162000254565b92915050565b6000819050919050565b6200029a8162000285565b8114620002a657600080fd5b50565b600081519050620002ba816200028f565b92915050565b60008060408385031215620002da57620002d962000207565b5b6000620002ea858286016200026e565b9250506020620002fd85828601620002a9565b9150509250929050565b600081519050919050565b7f4e487b7100000000000000000000000000000000000000000000000000000000600052604160045260246000fd5b7f4e487b7100000000000000000000000000000000000000000000000000000000600052602260045260246000fd5b600060028204905060018216806200038957607f821691505b6020821081036200039f576200039e62000341565b5b50919050565b60008190508160005260206000209050919050565b60006020601f8301049050919050565b600082821b905092915050565b600060088302620004097fffffffffffffffffffffffffffffffffffffffffffffffffffffffffffffffff82620003ca565b620004158683620003ca565b95508019841693508086168417925050509392505050565b6000819050919050565b6000819050919050565b6000620004626200045c62000456846200042d565b62000437565b6200042d565b9050919050565b6000819050919050565b6200047e8362000441565b620004966200048d8262000469565b848454620003d7565b825550505050565b600090565b620004ad6200049e565b620004ba81848462000473565b505050565b5b81811015620004e257620004d6600082620004a3565b600181019050620004c0565b5050565b601f8211156200053157620004fb81620003a5565b6200050684620003ba565b8101602085101562000516578190505b6200052e6200052585620003ba565b830182620004bf565b50505b505050565b600082821c905092915050565b6000620005566000198460080262000536565b1980831691505092915050565b600062000571838362000543565b9150826002028217905092915050565b6200058c8262000307565b67ffffffffffffffff811115620005a857620005a762000312565b5b620005b4825462000370565b620005c1828285620004e6565b600060209050601f831160018114620005f95760008415620005e4578287015190505b620005f0858262000563565b86555062000660565b601f1984166200060986620003a5565b60005b8281101562000633578489015182556001820191506020850194506020810190506200060c565b868310156200065357848901516200064f601f89168262000543565b8355505b6001600288020188555050505b505050505050565b61507d80620006786000396000f3fe608060405234801561001057600080fd5b50600436106102275760003560e01c80638da5cb5b11610130578063c475abff116100b8578063e0aade541161007c578063e0aade54146106d4578063e374d73814610704578063e985e9c514610734578063f2fde38b14610764578063f6a74ed71461078057610227565b8063c475abff146105f6578063c87b56dd14610626578063d6e4fa8614610656578063da8c229e14610686578063ddf7fcb0146106b657610227565b8063a7fc7a07116100ff578063a7fc7a0714610552578063b382e4c51461056e578063b88d4fde1461058c578063b9cce328146105a8578063c1a287e2146105d857610227565b80638da5cb5b146104ca57806395d89b41146104e857806396e494e814610506578063a22cb4651461053657610227565b8063293b2d4a116101b35780634f6ccce7116101825780634f6ccce71461041457806355f804b3146104445780636352211e1461046057806370a0823114610490578063715018a6146104c057610227565b8063293b2d4a1461037c5780632f745c59146103ac57806342842e0e146103dc5780634e543b26146103f857610227565b8063095ea7b3116101fa578063095ea7b3146102da57806309b0eb4c146102f657806318160ddd1461032657806323b872dd1461034457806328ed4f6c1461036057610227565b806301ffc9a71461022c578063051a26641461025c57806306fdde031461028c578063081812fc146102aa575b600080fd5b610246600480360381019061024191906136ae565b61079c565b60405161025391906136f6565b60405180910390f35b61027660048036038101906102719190613747565b610816565b6040516102839190613804565b60405180910390f35b6102946108bb565b6040516102a19190613804565b60405180910390f35b6102c460048036038101906102bf9190613747565b61094d565b6040516102d19190613867565b60405180910390f35b6102f460048036038101906102ef91906138ae565b610993565b005b610310600480360381019061030b9190613953565b610aaa565b60405161031d91906139d6565b60405180910390f35b61032e610c33565b60405161033b91906139d6565b60405180910390f35b61035e600480360381019061035991906139f1565b610c40565b005b61037a60048036038101906103759190613a44565b610ca0565b005b61039660048036038101906103919190613aba565b610e6a565b6040516103a391906139d6565b60405180910390f35b6103c660048036038101906103c191906138ae565b610e87565b6040516103d391906139d6565b60405180910390f35b6103f660048036038101906103f191906139f1565b610f2c565b005b610412600480360381019061040d9190613ae7565b610f4c565b005b61042e60048036038101906104299190613747565b610fe8565b60405161043b91906139d6565b60405180910390f35b61045e60048036038101906104599190613c44565b611059565b005b61047a60048036038101906104759190613747565b611074565b6040516104879190613867565b60405180910390f35b6104aa60048036038101906104a59190613ae7565b6110a5565b6040516104b791906139d6565b60405180910390f35b6104c861115c565b005b6104d2611170565b6040516104df9190613867565b60405180910390f35b6104f061119a565b6040516104fd9190613804565b60405180910390f35b610520600480360381019061051b9190613747565b61122c565b60405161052d91906136f6565b60405180910390f35b610550600480360381019061054b9190613cb9565b611259565b005b61056c60048036038101906105679190613ae7565b61126f565b005b610576611315565b6040516105839190613d58565b60405180910390f35b6105a660048036038101906105a19190613e14565b61133b565b005b6105c260048036038101906105bd9190613747565b61139d565b6040516105cf91906139d6565b60405180910390f35b6105e06113b5565b6040516105ed91906139d6565b60405180910390f35b610610600480360381019061060b9190613e97565b6113bc565b60405161061d91906139d6565b60405180910390f35b610640600480360381019061063b9190613747565b61165a565b60405161064d9190613804565b60405180910390f35b610670600480360381019061066b9190613747565b6116c2565b60405161067d91906139d6565b60405180910390f35b6106a0600480360381019061069b9190613ae7565b6116df565b6040516106ad91906136f6565b60405180910390f35b6106be6116ff565b6040516106cb9190613ee6565b60405180910390f35b6106ee60048036038101906106e99190613f01565b611705565b6040516106fb91906139d6565b60405180910390f35b61071e60048036038101906107199190613aba565b611895565b60405161072b9190613804565b60405180910390f35b61074e60048036038101906107499190613f89565b61194d565b60405161075b91906136f6565b60405180910390f35b61077e60048036038101906107799190613ae7565b6119e1565b005b61079a60048036038101906107959190613ae7565b611a64565b005b60007f836788bf000000000000000000000000000000000000000000000000000000007bffffffffffffffffffffffffffffffffffffffffffffffffffffffff1916827bffffffffffffffffffffffffffffffffffffffffffffffffffffffff1916148061080f575061080e82611b0a565b5b9050919050565b6060600f6000838152602001908152602001600020805461083690613ff8565b80601f016020809104026020016040519081016040528092919081815260200182805461086290613ff8565b80156108af5780601f10610884576101008083540402835291602001916108af565b820191906000526020600020905b81548152906001019060200180831161089257829003601f168201915b50505050509050919050565b6060600080546108ca90613ff8565b80601f01602080910402602001604051908101604052809291908181526020018280546108f690613ff8565b80156109435780601f1061091857610100808354040283529160200191610943565b820191906000526020600020905b81548152906001019060200180831161092657829003601f168201915b5050505050905090565b600061095882611b84565b6004600083815260200190815260200160002060009054906101000a900473ffffffffffffffffffffffffffffffffffffffff169050919050565b600061099e82611bcf565b90508073ffffffffffffffffffffffffffffffffffffffff168373ffffffffffffffffffffffffffffffffffffffff1603610a0e576040517f08c379a0000000000000000000000000000000000000000000000000000000008152600401610a059061409b565b60405180910390fd5b8073ffffffffffffffffffffffffffffffffffffffff16610a2d611c55565b73ffffffffffffffffffffffffffffffffffffffff161480610a5c5750610a5b81610a56611c55565b61194d565b5b610a9b576040517f08c379a0000000000000000000000000000000000000000000000000000000008152600401610a929061412d565b60405180910390fd5b610aa58383611c5d565b505050565b60003073ffffffffffffffffffffffffffffffffffffffff16600c60009054906101000a900473ffffffffffffffffffffffffffffffffffffffff1673ffffffffffffffffffffffffffffffffffffffff166302571be3600d546040518263ffffffff1660e01b8152600401610b209190613ee6565b602060405180830381865afa158015610b3d573d6000803e3d6000fd5b505050506040513d601f19601f82011682018060405250810190610b619190614162565b73ffffffffffffffffffffffffffffffffffffffff1614610b8157600080fd5b600e60003373ffffffffffffffffffffffffffffffffffffffff1673ffffffffffffffffffffffffffffffffffffffff16815260200190815260200160002060009054906101000a900460ff16610bd757600080fd5b610c2985858080601f016020809104026020016040519081016040528093929190818152602001838380828437600081840152601f19601f820116905080830192505050505050508484600080611d16565b9050949350505050565b6000600880549050905090565b610c51610c4b611c55565b82612086565b610c90576040517f08c379a0000000000000000000000000000000000000000000000000000000008152600401610c8790614201565b60405180910390fd5b610c9b83838361211b565b505050565b3073ffffffffffffffffffffffffffffffffffffffff16600c60009054906101000a900473ffffffffffffffffffffffffffffffffffffffff1673ffffffffffffffffffffffffffffffffffffffff166302571be3600d546040518263ffffffff1660e01b8152600401610d149190613ee6565b602060405180830381865afa158015610d31573d6000803e3d6000fd5b505050506040513d601f19601f82011682018060405250810190610d559190614162565b73ffffffffffffffffffffffffffffffffffffffff1614610d7557600080fd5b610d7f3383612086565b610dbe576040517f08c379a0000000000000000000000000000000000000000000000000000000008152600401610db59061426d565b60405180910390fd5b600c60009054906101000a900473ffffffffffffffffffffffffffffffffffffffff1673ffffffffffffffffffffffffffffffffffffffff166306ab5923600d548460001b846040518463ffffffff1660e01b8152600401610e229392919061428d565b6020604051808303816000875af1158015610e41573d6000803e3d6000fd5b505050506040513d601f19601f82011682018060405250810190610e6591906142d9565b505050565b600060106000838152602001908152602001600020549050919050565b6000610e92836110a5565b8210610ed3576040517f08c379a0000000000000000000000000000000000000000000000000000000008152600401610eca90614378565b60405180910390fd5b600660008473ffffffffffffffffffffffffffffffffffffffff1673ffffffffffffffffffffffffffffffffffffffff168152602001908152602001600020600083815260200190815260200160002054905092915050565b610f478383836040518060200160405280600081525061133b565b505050565b610f54612414565b600c60009054906101000a900473ffffffffffffffffffffffffffffffffffffffff1673ffffffffffffffffffffffffffffffffffffffff16631896f70a600d54836040518363ffffffff1660e01b8152600401610fb3929190614398565b600060405180830381600087803b158015610fcd57600080fd5b505af1158015610fe1573d6000803e3d6000fd5b5050505050565b6000610ff2610c33565b8210611033576040517f08c379a000000000000000000000000000000000000000000000000000000000815260040161102a90614433565b60405180910390fd5b6008828154811061104757611046614453565b5b90600052602060002001549050919050565b611061612414565b80601190816110709190614624565b5050565b600042600b6000848152602001908152602001600020541161109557600080fd5b61109e82611bcf565b9050919050565b60008073ffffffffffffffffffffffffffffffffffffffff168273ffffffffffffffffffffffffffffffffffffffff1603611115576040517f08c379a000000000000000000000000000000000000000000000000000000000815260040161110c90614768565b60405180910390fd5b600360008373ffffffffffffffffffffffffffffffffffffffff1673ffffffffffffffffffffffffffffffffffffffff168152602001908152602001600020549050919050565b611164612414565b61116e6000612492565b565b6000600a60009054906101000a900473ffffffffffffffffffffffffffffffffffffffff16905090565b6060600180546111a990613ff8565b80601f01602080910402602001604051908101604052809291908181526020018280546111d590613ff8565b80156112225780601f106111f757610100808354040283529160200191611222565b820191906000526020600020905b81548152906001019060200180831161120557829003601f168201915b5050505050905090565b6000426276a700600b60008581526020019081526020016000205461125191906147b7565b109050919050565b61126b611264611c55565b8383612558565b5050565b611277612414565b6001600e60008373ffffffffffffffffffffffffffffffffffffffff1673ffffffffffffffffffffffffffffffffffffffff16815260200190815260200160002060006101000a81548160ff0219169083151502179055508073ffffffffffffffffffffffffffffffffffffffff167f0a8bb31534c0ed46f380cb867bd5c803a189ced9a764e30b3a4991a9901d747460405160405180910390a250565b600c60009054906101000a900473ffffffffffffffffffffffffffffffffffffffff1681565b61134c611346611c55565b83612086565b61138b576040517f08c379a000000000000000000000000000000000000000000000000000000000815260040161138290614201565b60405180910390fd5b611397848484846126c4565b50505050565b600b6020528060005260406000206000915090505481565b6276a70081565b60003073ffffffffffffffffffffffffffffffffffffffff16600c60009054906101000a900473ffffffffffffffffffffffffffffffffffffffff1673ffffffffffffffffffffffffffffffffffffffff166302571be3600d546040518263ffffffff1660e01b81526004016114329190613ee6565b602060405180830381865afa15801561144f573d6000803e3d6000fd5b505050506040513d601f19601f820116820180604052508101906114739190614162565b73ffffffffffffffffffffffffffffffffffffffff161461149357600080fd5b600e60003373ffffffffffffffffffffffffffffffffffffffff1673ffffffffffffffffffffffffffffffffffffffff16815260200190815260200160002060009054906101000a900460ff166114e957600080fd5b426276a700600b60008681526020019081526020016000205461150c91906147b7565b101561154d576040517f08c379a000000000000000000000000000000000000000000000000000000000815260040161154490614837565b60405180910390fd5b6276a7008261155c91906147b7565b6276a70083600b60008781526020019081526020016000205461157f91906147b7565b61158991906147b7565b116115c9576040517f08c379a00000000000000000000000000000000000000000000000000000000081526004016115c0906148a3565b60405180910390fd5b81600b600085815260200190815260200160002060008282546115ec91906147b7565b92505081905550827f9b87a00e30f1ac65d898f070f8a3488fe60517182d0a2098e1b4b93a54aa9bd6600b60008681526020019081526020016000205460405161163691906139d6565b60405180910390a2600b600084815260200190815260200160002054905092915050565b606061166582611b84565b600061166f612720565b9050600081511161168f57604051806020016040528060008152506116ba565b80611699846127b2565b6040516020016116aa9291906148ff565b6040516020818303038152906040525b915050919050565b6000600b6000838152602001908152602001600020549050919050565b600e6020528060005260406000206000915054906101000a900460ff1681565b600d5481565b60003073ffffffffffffffffffffffffffffffffffffffff16600c60009054906101000a900473ffffffffffffffffffffffffffffffffffffffff1673ffffffffffffffffffffffffffffffffffffffff166302571be3600d546040518263ffffffff1660e01b815260040161177b9190613ee6565b602060405180830381865afa158015611798573d6000803e3d6000fd5b505050506040513d601f19601f820116820180604052508101906117bc9190614162565b73ffffffffffffffffffffffffffffffffffffffff16146117dc57600080fd5b600e60003373ffffffffffffffffffffffffffffffffffffffff1673ffffffffffffffffffffffffffffffffffffffff16815260200190815260200160002060009054906101000a900460ff1661183257600080fd5b600061188687878080601f016020809104026020016040519081016040528093929190818152602001838380828437600081840152601f19601f820116905080830192505050505050508686600187611d16565b90508091505095945050505050565b6060600f60006010600085815260200190815260200160002054815260200190815260200160002080546118c890613ff8565b80601f01602080910402602001604051908101604052809291908181526020018280546118f490613ff8565b80156119415780601f1061191657610100808354040283529160200191611941565b820191906000526020600020905b81548152906001019060200180831161192457829003601f168201915b50505050509050919050565b6000600560008473ffffffffffffffffffffffffffffffffffffffff1673ffffffffffffffffffffffffffffffffffffffff16815260200190815260200160002060008373ffffffffffffffffffffffffffffffffffffffff1673ffffffffffffffffffffffffffffffffffffffff16815260200190815260200160002060009054906101000a900460ff16905092915050565b6119e9612414565b600073ffffffffffffffffffffffffffffffffffffffff168173ffffffffffffffffffffffffffffffffffffffff1603611a58576040517f08c379a0000000000000000000000000000000000000000000000000000000008152600401611a4f90614995565b60405180910390fd5b611a6181612492565b50565b611a6c612414565b6000600e60008373ffffffffffffffffffffffffffffffffffffffff1673ffffffffffffffffffffffffffffffffffffffff16815260200190815260200160002060006101000a81548160ff0219169083151502179055508073ffffffffffffffffffffffffffffffffffffffff167f33d83959be2573f5453b12eb9d43b3499bc57d96bd2f067ba44803c859e8111360405160405180910390a250565b60007f780e9d63000000000000000000000000000000000000000000000000000000007bffffffffffffffffffffffffffffffffffffffffffffffffffffffff1916827bffffffffffffffffffffffffffffffffffffffffffffffffffffffff19161480611b7d5750611b7c82612880565b5b9050919050565b611b8d81612962565b611bcc576040517f08c379a0000000000000000000000000000000000000000000000000000000008152600401611bc390614a01565b60405180910390fd5b50565b600080611bdb836129a3565b9050600073ffffffffffffffffffffffffffffffffffffffff168173ffffffffffffffffffffffffffffffffffffffff1603611c4c576040517f08c379a0000000000000000000000000000000000000000000000000000000008152600401611c4390614a01565b60405180910390fd5b80915050919050565b600033905090565b816004600083815260200190815260200160002060006101000a81548173ffffffffffffffffffffffffffffffffffffffff021916908373ffffffffffffffffffffffffffffffffffffffff160217905550808273ffffffffffffffffffffffffffffffffffffffff16611cd083611bcf565b73ffffffffffffffffffffffffffffffffffffffff167f8c5be1e5ebec7d5bd14f71427d1e84f3dd0314c0f7b2291e5b200ac8c7c3b92560405160405180910390a45050565b600080868051906020012060001c9050611d2f8161122c565b611d6e576040517f08c379a0000000000000000000000000000000000000000000000000000000008152600401611d6590614a6d565b60405180910390fd5b6276a70042611d7d91906147b7565b6276a7008642611d8d91906147b7565b611d9791906147b7565b11611dd7576040517f08c379a0000000000000000000000000000000000000000000000000000000008152600401611dce90614837565b60405180910390fd5b8442611de391906147b7565b600b600083815260200190815260200160002081905550611e0381612962565b15611e1257611e11816129e0565b5b611e1c8682612b2e565b86600f60008381526020019081526020016000209081611e3c9190614624565b506000600d548260001b604051602001611e57929190614aae565b604051602081830303815290604052805190602001209050816010600083815260200190815260200160002081905550841561201357600c60009054906101000a900473ffffffffffffffffffffffffffffffffffffffff1673ffffffffffffffffffffffffffffffffffffffff166306ab5923600d548460001b8a6040518463ffffffff1660e01b8152600401611ef19392919061428d565b6020604051808303816000875af1158015611f10573d6000803e3d6000fd5b505050506040513d601f19601f82011682018060405250810190611f3491906142d9565b50600073ffffffffffffffffffffffffffffffffffffffff168473ffffffffffffffffffffffffffffffffffffffff161461201257600c60009054906101000a900473ffffffffffffffffffffffffffffffffffffffff1673ffffffffffffffffffffffffffffffffffffffff16630cba6ee5600d548460001b876040518463ffffffff1660e01b8152600401611fcd9392919061428d565b6020604051808303816000875af1158015611fec573d6000803e3d6000fd5b505050506040513d601f19601f8201168201806040525081019061201091906142d9565b505b5b8673ffffffffffffffffffffffffffffffffffffffff16827fb3d987963d01b2f68493b4bdb130988f157ea43070d4ad840fee0466ed9370d9884261205891906147b7565b60405161206591906139d6565b60405180910390a3854261207991906147b7565b9250505095945050505050565b60008061209283611074565b90508073ffffffffffffffffffffffffffffffffffffffff168473ffffffffffffffffffffffffffffffffffffffff16148061210157508373ffffffffffffffffffffffffffffffffffffffff166120e98461094d565b73ffffffffffffffffffffffffffffffffffffffff16145b806121125750612111818561194d565b5b91505092915050565b8273ffffffffffffffffffffffffffffffffffffffff1661213b82611bcf565b73ffffffffffffffffffffffffffffffffffffffff1614612191576040517f08c379a000000000000000000000000000000000000000000000000000000000815260040161218890614b4c565b60405180910390fd5b600073ffffffffffffffffffffffffffffffffffffffff168273ffffffffffffffffffffffffffffffffffffffff1603612200576040517f08c379a00000000000000000000000000000000000000000000000000000000081526004016121f790614bde565b60405180910390fd5b61220d8383836001612d4b565b8273ffffffffffffffffffffffffffffffffffffffff1661222d82611bcf565b73ffffffffffffffffffffffffffffffffffffffff1614612283576040517f08c379a000000000000000000000000000000000000000000000000000000000815260040161227a90614b4c565b60405180910390fd5b6004600082815260200190815260200160002060006101000a81549073ffffffffffffffffffffffffffffffffffffffff02191690556001600360008573ffffffffffffffffffffffffffffffffffffffff1673ffffffffffffffffffffffffffffffffffffffff168152602001908152602001600020600082825403925050819055506001600360008473ffffffffffffffffffffffffffffffffffffffff1673ffffffffffffffffffffffffffffffffffffffff16815260200190815260200160002060008282540192505081905550816002600083815260200190815260200160002060006101000a81548173ffffffffffffffffffffffffffffffffffffffff021916908373ffffffffffffffffffffffffffffffffffffffff160217905550808273ffffffffffffffffffffffffffffffffffffffff168473ffffffffffffffffffffffffffffffffffffffff167fddf252ad1be2c89b69c2b068fc378daa952ba7f163c4a11628f55a4df523b3ef60405160405180910390a461240f8383836001612ea9565b505050565b61241c611c55565b73ffffffffffffffffffffffffffffffffffffffff1661243a611170565b73ffffffffffffffffffffffffffffffffffffffff1614612490576040517f08c379a000000000000000000000000000000000000000000000000000000000815260040161248790614c4a565b60405180910390fd5b565b6000600a60009054906101000a900473ffffffffffffffffffffffffffffffffffffffff16905081600a60006101000a81548173ffffffffffffffffffffffffffffffffffffffff021916908373ffffffffffffffffffffffffffffffffffffffff1602179055508173ffffffffffffffffffffffffffffffffffffffff168173ffffffffffffffffffffffffffffffffffffffff167f8be0079c531659141344cd1fd0a4f28419497f9722a3daafe3b4186f6b6457e060405160405180910390a35050565b8173ffffffffffffffffffffffffffffffffffffffff168373ffffffffffffffffffffffffffffffffffffffff16036125c6576040517f08c379a00000000000000000000000000000000000000000000000000000000081526004016125bd90614cb6565b60405180910390fd5b80600560008573ffffffffffffffffffffffffffffffffffffffff1673ffffffffffffffffffffffffffffffffffffffff16815260200190815260200160002060008473ffffffffffffffffffffffffffffffffffffffff1673ffffffffffffffffffffffffffffffffffffffff16815260200190815260200160002060006101000a81548160ff0219169083151502179055508173ffffffffffffffffffffffffffffffffffffffff168373ffffffffffffffffffffffffffffffffffffffff167f17307eab39ab6107e8899845ad3d59bd9653f200f220920489ca2b5937696c31836040516126b791906136f6565b60405180910390a3505050565b6126cf84848461211b565b6126db84848484612eaf565b61271a576040517f08c379a000000000000000000000000000000000000000000000000000000000815260040161271190614d48565b60405180910390fd5b50505050565b60606011805461272f90613ff8565b80601f016020809104026020016040519081016040528092919081815260200182805461275b90613ff8565b80156127a85780601f1061277d576101008083540402835291602001916127a8565b820191906000526020600020905b81548152906001019060200180831161278b57829003601f168201915b5050505050905090565b6060600060016127c184613036565b01905060008167ffffffffffffffff8111156127e0576127df613b19565b5b6040519080825280601f01601f1916602001820160405280156128125781602001600182028036833780820191505090505b509050600082602001820190505b600115612875578080600190039150507f3031323334353637383961626364656600000000000000000000000000000000600a86061a8153600a858161286957612868614d68565b5b04945060008503612820575b819350505050919050565b60007f80ac58cd000000000000000000000000000000000000000000000000000000007bffffffffffffffffffffffffffffffffffffffffffffffffffffffff1916827bffffffffffffffffffffffffffffffffffffffffffffffffffffffff1916148061294b57507f5b5e139f000000000000000000000000000000000000000000000000000000007bffffffffffffffffffffffffffffffffffffffffffffffffffffffff1916827bffffffffffffffffffffffffffffffffffffffffffffffffffffffff1916145b8061295b575061295a82613189565b5b9050919050565b60008073ffffffffffffffffffffffffffffffffffffffff16612984836129a3565b73ffffffffffffffffffffffffffffffffffffffff1614159050919050565b60006002600083815260200190815260200160002060009054906101000a900473ffffffffffffffffffffffffffffffffffffffff169050919050565b60006129eb82611bcf565b90506129fb816000846001612d4b565b612a0482611bcf565b90506004600083815260200190815260200160002060006101000a81549073ffffffffffffffffffffffffffffffffffffffff02191690556001600360008373ffffffffffffffffffffffffffffffffffffffff1673ffffffffffffffffffffffffffffffffffffffff168152602001908152602001600020600082825403925050819055506002600083815260200190815260200160002060006101000a81549073ffffffffffffffffffffffffffffffffffffffff021916905581600073ffffffffffffffffffffffffffffffffffffffff168273ffffffffffffffffffffffffffffffffffffffff167fddf252ad1be2c89b69c2b068fc378daa952ba7f163c4a11628f55a4df523b3ef60405160405180910390a4612b2a816000846001612ea9565b5050565b600073ffffffffffffffffffffffffffffffffffffffff168273ffffffffffffffffffffffffffffffffffffffff1603612b9d576040517f08c379a0000000000000000000000000000000000000000000000000000000008152600401612b9490614de3565b60405180910390fd5b612ba681612962565b15612be6576040517f08c379a0000000000000000000000000000000000000000000000000000000008152600401612bdd90614e4f565b60405180910390fd5b612bf4600083836001612d4b565b612bfd81612962565b15612c3d576040517f08c379a0000000000000000000000000000000000000000000000000000000008152600401612c3490614e4f565b60405180910390fd5b6001600360008473ffffffffffffffffffffffffffffffffffffffff1673ffffffffffffffffffffffffffffffffffffffff16815260200190815260200160002060008282540192505081905550816002600083815260200190815260200160002060006101000a81548173ffffffffffffffffffffffffffffffffffffffff021916908373ffffffffffffffffffffffffffffffffffffffff160217905550808273ffffffffffffffffffffffffffffffffffffffff16600073ffffffffffffffffffffffffffffffffffffffff167fddf252ad1be2c89b69c2b068fc378daa952ba7f163c4a11628f55a4df523b3ef60405160405180910390a4612d47600083836001612ea9565b5050565b612d57848484846131f3565b6001811115612d9b576040517f08c379a0000000000000000000000000000000000000000000000000000000008152600401612d9290614ee1565b60405180910390fd5b6000829050600073ffffffffffffffffffffffffffffffffffffffff168573ffffffffffffffffffffffffffffffffffffffff1603612de257612ddd81613319565b612e21565b8373ffffffffffffffffffffffffffffffffffffffff168573ffffffffffffffffffffffffffffffffffffffff1614612e2057612e1f8582613362565b5b5b600073ffffffffffffffffffffffffffffffffffffffff168473ffffffffffffffffffffffffffffffffffffffff1603612e6357612e5e816134cf565b612ea2565b8473ffffffffffffffffffffffffffffffffffffffff168473ffffffffffffffffffffffffffffffffffffffff1614612ea157612ea084826135a0565b5b5b5050505050565b50505050565b6000612ed08473ffffffffffffffffffffffffffffffffffffffff1661361f565b15613029578373ffffffffffffffffffffffffffffffffffffffff1663150b7a02612ef9611c55565b8786866040518563ffffffff1660e01b8152600401612f1b9493929190614f56565b6020604051808303816000875af1925050508015612f5757506040513d601f19601f82011682018060405250810190612f549190614fb7565b60015b612fd9573d8060008114612f87576040519150601f19603f3d011682016040523d82523d6000602084013e612f8c565b606091505b506000815103612fd1576040517f08c379a0000000000000000000000000000000000000000000000000000000008152600401612fc890614d48565b60405180910390fd5b805181602001fd5b63150b7a0260e01b7bffffffffffffffffffffffffffffffffffffffffffffffffffffffff1916817bffffffffffffffffffffffffffffffffffffffffffffffffffffffff19161491505061302e565b600190505b949350505050565b600080600090507a184f03e93ff9f4daa797ed6e38ed64bf6a1f0100000000000000008310613094577a184f03e93ff9f4daa797ed6e38ed64bf6a1f010000000000000000838161308a57613089614d68565b5b0492506040810190505b6d04ee2d6d415b85acef810000000083106130d1576d04ee2d6d415b85acef810000000083816130c7576130c6614d68565b5b0492506020810190505b662386f26fc10000831061310057662386f26fc1000083816130f6576130f5614d68565b5b0492506010810190505b6305f5e1008310613129576305f5e100838161311f5761311e614d68565b5b0492506008810190505b612710831061314e57612710838161314457613143614d68565b5b0492506004810190505b60648310613171576064838161316757613166614d68565b5b0492506002810190505b600a8310613180576001810190505b80915050919050565b60007f01ffc9a7000000000000000000000000000000000000000000000000000000007bffffffffffffffffffffffffffffffffffffffffffffffffffffffff1916827bffffffffffffffffffffffffffffffffffffffffffffffffffffffff1916149050919050565b600181111561331357600073ffffffffffffffffffffffffffffffffffffffff168473ffffffffffffffffffffffffffffffffffffffff16146132875780600360008673ffffffffffffffffffffffffffffffffffffffff1673ffffffffffffffffffffffffffffffffffffffff168152602001908152602001600020600082825461327f9190614fe4565b925050819055505b600073ffffffffffffffffffffffffffffffffffffffff168373ffffffffffffffffffffffffffffffffffffffff16146133125780600360008573ffffffffffffffffffffffffffffffffffffffff1673ffffffffffffffffffffffffffffffffffffffff168152602001908152602001600020600082825461330a91906147b7565b925050819055505b5b50505050565b6008805490506009600083815260200190815260200160002081905550600881908060018154018082558091505060019003906000526020600020016000909190919091505550565b6000600161336f846110a5565b6133799190614fe4565b905060006007600084815260200190815260200160002054905081811461345e576000600660008673ffffffffffffffffffffffffffffffffffffffff1673ffffffffffffffffffffffffffffffffffffffff168152602001908152602001600020600084815260200190815260200160002054905080600660008773ffffffffffffffffffffffffffffffffffffffff1673ffffffffffffffffffffffffffffffffffffffff168152602001908152602001600020600084815260200190815260200160002081905550816007600083815260200190815260200160002081905550505b6007600084815260200190815260200160002060009055600660008573ffffffffffffffffffffffffffffffffffffffff1673ffffffffffffffffffffffffffffffffffffffff16815260200190815260200160002060008381526020019081526020016000206000905550505050565b600060016008805490506134e39190614fe4565b905060006009600084815260200190815260200160002054905060006008838154811061351357613512614453565b5b90600052602060002001549050806008838154811061353557613534614453565b5b90600052602060002001819055508160096000838152602001908152602001600020819055506009600085815260200190815260200160002060009055600880548061358457613583615018565b5b6001900381819060005260206000200160009055905550505050565b60006135ab836110a5565b905081600660008573ffffffffffffffffffffffffffffffffffffffff1673ffffffffffffffffffffffffffffffffffffffff168152602001908152602001600020600083815260200190815260200160002081905550806007600084815260200190815260200160002081905550505050565b6000808273ffffffffffffffffffffffffffffffffffffffff163b119050919050565b6000604051905090565b600080fd5b600080fd5b60007fffffffff0000000000000000000000000000000000000000000000000000000082169050919050565b61368b81613656565b811461369657600080fd5b50565b6000813590506136a881613682565b92915050565b6000602082840312156136c4576136c361364c565b5b60006136d284828501613699565b91505092915050565b60008115159050919050565b6136f0816136db565b82525050565b600060208201905061370b60008301846136e7565b92915050565b6000819050919050565b61372481613711565b811461372f57600080fd5b50565b6000813590506137418161371b565b92915050565b60006020828403121561375d5761375c61364c565b5b600061376b84828501613732565b91505092915050565b600081519050919050565b600082825260208201905092915050565b60005b838110156137ae578082015181840152602081019050613793565b60008484015250505050565b6000601f19601f8301169050919050565b60006137d682613774565b6137e0818561377f565b93506137f0818560208601613790565b6137f9816137ba565b840191505092915050565b6000602082019050818103600083015261381e81846137cb565b905092915050565b600073ffffffffffffffffffffffffffffffffffffffff82169050919050565b600061385182613826565b9050919050565b61386181613846565b82525050565b600060208201905061387c6000830184613858565b92915050565b61388b81613846565b811461389657600080fd5b50565b6000813590506138a881613882565b92915050565b600080604083850312156138c5576138c461364c565b5b60006138d385828601613899565b92505060206138e485828601613732565b9150509250929050565b600080fd5b600080fd5b600080fd5b60008083601f840112613913576139126138ee565b5b8235905067ffffffffffffffff8111156139305761392f6138f3565b5b60208301915083600182028301111561394c5761394b6138f8565b5b9250929050565b6000806000806060858703121561396d5761396c61364c565b5b600085013567ffffffffffffffff81111561398b5761398a613651565b5b613997878288016138fd565b945094505060206139aa87828801613899565b92505060406139bb87828801613732565b91505092959194509250565b6139d081613711565b82525050565b60006020820190506139eb60008301846139c7565b92915050565b600080600060608486031215613a0a57613a0961364c565b5b6000613a1886828701613899565b9350506020613a2986828701613899565b9250506040613a3a86828701613732565b9150509250925092565b60008060408385031215613a5b57613a5a61364c565b5b6000613a6985828601613732565b9250506020613a7a85828601613899565b9150509250929050565b6000819050919050565b613a9781613a84565b8114613aa257600080fd5b50565b600081359050613ab481613a8e565b92915050565b600060208284031215613ad057613acf61364c565b5b6000613ade84828501613aa5565b91505092915050565b600060208284031215613afd57613afc61364c565b5b6000613b0b84828501613899565b91505092915050565b600080fd5b7f4e487b7100000000000000000000000000000000000000000000000000000000600052604160045260246000fd5b613b51826137ba565b810181811067ffffffffffffffff82111715613b7057613b6f613b19565b5b80604052505050565b6000613b83613642565b9050613b8f8282613b48565b919050565b600067ffffffffffffffff821115613baf57613bae613b19565b5b613bb8826137ba565b9050602081019050919050565b82818337600083830152505050565b6000613be7613be284613b94565b613b79565b905082815260208101848484011115613c0357613c02613b14565b5b613c0e848285613bc5565b509392505050565b600082601f830112613c2b57613c2a6138ee565b5b8135613c3b848260208601613bd4565b91505092915050565b600060208284031215613c5a57613c5961364c565b5b600082013567ffffffffffffffff811115613c7857613c77613651565b5b613c8484828501613c16565b91505092915050565b613c96816136db565b8114613ca157600080fd5b50565b600081359050613cb381613c8d565b92915050565b60008060408385031215613cd057613ccf61364c565b5b6000613cde85828601613899565b9250506020613cef85828601613ca4565b9150509250929050565b6000819050919050565b6000613d1e613d19613d1484613826565b613cf9565b613826565b9050919050565b6000613d3082613d03565b9050919050565b6000613d4282613d25565b9050919050565b613d5281613d37565b82525050565b6000602082019050613d6d6000830184613d49565b92915050565b600067ffffffffffffffff821115613d8e57613d8d613b19565b5b613d97826137ba565b9050602081019050919050565b6000613db7613db284613d73565b613b79565b905082815260208101848484011115613dd357613dd2613b14565b5b613dde848285613bc5565b509392505050565b600082601f830112613dfb57613dfa6138ee565b5b8135613e0b848260208601613da4565b91505092915050565b60008060008060808587031215613e2e57613e2d61364c565b5b6000613e3c87828801613899565b9450506020613e4d87828801613899565b9350506040613e5e87828801613732565b925050606085013567ffffffffffffffff811115613e7f57613e7e613651565b5b613e8b87828801613de6565b91505092959194509250565b60008060408385031215613eae57613ead61364c565b5b6000613ebc85828601613732565b9250506020613ecd85828601613732565b9150509250929050565b613ee081613a84565b82525050565b6000602082019050613efb6000830184613ed7565b92915050565b600080600080600060808688031215613f1d57613f1c61364c565b5b600086013567ffffffffffffffff811115613f3b57613f3a613651565b5b613f47888289016138fd565b95509550506020613f5a88828901613899565b9350506040613f6b88828901613732565b9250506060613f7c88828901613899565b9150509295509295909350565b60008060408385031215613fa057613f9f61364c565b5b6000613fae85828601613899565b9250506020613fbf85828601613899565b9150509250929050565b7f4e487b7100000000000000000000000000000000000000000000000000000000600052602260045260246000fd5b6000600282049050600182168061401057607f821691505b60208210810361402357614022613fc9565b5b50919050565b7f4552433732313a20617070726f76616c20746f2063757272656e74206f776e6560008201527f7200000000000000000000000000000000000000000000000000000000000000602082015250565b600061408560218361377f565b915061409082614029565b604082019050919050565b600060208201905081810360008301526140b481614078565b9050919050565b7f4552433732313a20617070726f76652063616c6c6572206973206e6f7420746f60008201527f6b656e206f776e6572206f7220617070726f76656420666f7220616c6c000000602082015250565b6000614117603d8361377f565b9150614122826140bb565b604082019050919050565b600060208201905081810360008301526141468161410a565b9050919050565b60008151905061415c81613882565b92915050565b6000602082840312156141785761417761364c565b5b60006141868482850161414d565b91505092915050565b7f4552433732313a2063616c6c6572206973206e6f7420746f6b656e206f776e6560008201527f72206f7220617070726f76656400000000000000000000000000000000000000602082015250565b60006141eb602d8361377f565b91506141f68261418f565b604082019050919050565b6000602082019050818103600083015261421a816141de565b9050919050565b7f666f7262696464656e0000000000000000000000000000000000000000000000600082015250565b600061425760098361377f565b915061426282614221565b602082019050919050565b600060208201905081810360008301526142868161424a565b9050919050565b60006060820190506142a26000830186613ed7565b6142af6020830185613ed7565b6142bc6040830184613858565b949350505050565b6000815190506142d381613a8e565b92915050565b6000602082840312156142ef576142ee61364c565b5b60006142fd848285016142c4565b91505092915050565b7f455243373231456e756d657261626c653a206f776e657220696e646578206f7560008201527f74206f6620626f756e6473000000000000000000000000000000000000000000602082015250565b6000614362602b8361377f565b915061436d82614306565b604082019050919050565b6000602082019050818103600083015261439181614355565b9050919050565b60006040820190506143ad6000830185613ed7565b6143ba6020830184613858565b9392505050565b7f455243373231456e756d657261626c653a20676c6f62616c20696e646578206f60008201527f7574206f6620626f756e64730000000000000000000000000000000000000000602082015250565b600061441d602c8361377f565b9150614428826143c1565b604082019050919050565b6000602082019050818103600083015261444c81614410565b9050919050565b7f4e487b7100000000000000000000000000000000000000000000000000000000600052603260045260246000fd5b60008190508160005260206000209050919050565b60006020601f8301049050919050565b600082821b905092915050565b6000600883026144e47fffffffffffffffffffffffffffffffffffffffffffffffffffffffffffffffff826144a7565b6144ee86836144a7565b95508019841693508086168417925050509392505050565b600061452161451c61451784613711565b613cf9565b613711565b9050919050565b6000819050919050565b61453b83614506565b61454f61454782614528565b8484546144b4565b825550505050565b600090565b614564614557565b61456f818484614532565b505050565b5b818110156145935761458860008261455c565b600181019050614575565b5050565b601f8211156145d8576145a981614482565b6145b284614497565b810160208510156145c1578190505b6145d56145cd85614497565b830182614574565b50505b505050565b600082821c905092915050565b60006145fb600019846008026145dd565b1980831691505092915050565b600061461483836145ea565b9150826002028217905092915050565b61462d82613774565b67ffffffffffffffff81111561464657614645613b19565b5b6146508254613ff8565b61465b828285614597565b600060209050601f83116001811461468e576000841561467c578287015190505b6146868582614608565b8655506146ee565b601f19841661469c86614482565b60005b828110156146c45784890151825560018201915060208501945060208101905061469f565b868310156146e157848901516146dd601f8916826145ea565b8355505b6001600288020188555050505b505050505050565b7f4552433732313a2061646472657373207a65726f206973206e6f74206120766160008201527f6c6964206f776e65720000000000000000000000000000000000000000000000602082015250565b600061475260298361377f565b915061475d826146f6565b604082019050919050565b6000602082019050818103600083015261478181614745565b9050919050565b7f4e487b7100000000000000000000000000000000000000000000000000000000600052601160045260246000fd5b60006147c282613711565b91506147cd83613711565b92508282019050808211156147e5576147e4614788565b5b92915050565b7f677261636520706572696f640000000000000000000000000000000000000000600082015250565b6000614821600c8361377f565b915061482c826147eb565b602082019050919050565b6000602082019050818103600083015261485081614814565b9050919050565b7f667574757265206f766572666c6f770000000000000000000000000000000000600082015250565b600061488d600f8361377f565b915061489882614857565b602082019050919050565b600060208201905081810360008301526148bc81614880565b9050919050565b600081905092915050565b60006148d982613774565b6148e381856148c3565b93506148f3818560208601613790565b80840191505092915050565b600061490b82856148ce565b915061491782846148ce565b91508190509392505050565b7f4f776e61626c653a206e6577206f776e657220697320746865207a65726f206160008201527f6464726573730000000000000000000000000000000000000000000000000000602082015250565b600061497f60268361377f565b915061498a82614923565b604082019050919050565b600060208201905081810360008301526149ae81614972565b9050919050565b7f4552433732313a20696e76616c696420746f6b656e2049440000000000000000600082015250565b60006149eb60188361377f565b91506149f6826149b5565b602082019050919050565b60006020820190508181036000830152614a1a816149de565b9050919050565b7f6e6f7420617661696c61626c6500000000000000000000000000000000000000600082015250565b6000614a57600d8361377f565b9150614a6282614a21565b602082019050919050565b60006020820190508181036000830152614a8681614a4a565b9050919050565b6000819050919050565b614aa8614aa382613a84565b614a8d565b82525050565b6000614aba8285614a97565b602082019150614aca8284614a97565b6020820191508190509392505050565b7f4552433732313a207472616e736665722066726f6d20696e636f72726563742060008201527f6f776e6572000000000000000000000000000000000000000000000000000000602082015250565b6000614b3660258361377f565b9150614b4182614ada565b604082019050919050565b60006020820190508181036000830152614b6581614b29565b9050919050565b7f4552433732313a207472616e7366657220746f20746865207a65726f2061646460008201527f7265737300000000000000000000000000000000000000000000000000000000602082015250565b6000614bc860248361377f565b9150614bd382614b6c565b604082019050919050565b60006020820190508181036000830152614bf781614bbb565b9050919050565b7f4f776e61626c653a2063616c6c6572206973206e6f7420746865206f776e6572600082015250565b6000614c3460208361377f565b9150614c3f82614bfe565b602082019050919050565b60006020820190508181036000830152614c6381614c27565b9050919050565b7f4552433732313a20617070726f766520746f2063616c6c657200000000000000600082015250565b6000614ca060198361377f565b9150614cab82614c6a565b602082019050919050565b60006020820190508181036000830152614ccf81614c93565b9050919050565b7f4552433732313a207472616e7366657220746f206e6f6e20455243373231526560008201527f63656976657220696d706c656d656e7465720000000000000000000000000000602082015250565b6000614d3260328361377f565b9150614d3d82614cd6565b604082019050919050565b60006020820190508181036000830152614d6181614d25565b9050919050565b7f4e487b7100000000000000000000000000000000000000000000000000000000600052601260045260246000fd5b7f4552433732313a206d696e7420746f20746865207a65726f2061646472657373600082015250565b6000614dcd60208361377f565b9150614dd882614d97565b602082019050919050565b60006020820190508181036000830152614dfc81614dc0565b9050919050565b7f4552433732313a20746f6b656e20616c7265616479206d696e74656400000000600082015250565b6000614e39601c8361377f565b9150614e4482614e03565b602082019050919050565b60006020820190508181036000830152614e6881614e2c565b9050919050565b7f455243373231456e756d657261626c653a20636f6e736563757469766520747260008201527f616e7366657273206e6f7420737570706f727465640000000000000000000000602082015250565b6000614ecb60358361377f565b9150614ed682614e6f565b604082019050919050565b60006020820190508181036000830152614efa81614ebe565b9050919050565b600081519050919050565b600082825260208201905092915050565b6000614f2882614f01565b614f328185614f0c565b9350614f42818560208601613790565b614f4b816137ba565b840191505092915050565b6000608082019050614f6b6000830187613858565b614f786020830186613858565b614f8560408301856139c7565b8181036060830152614f978184614f1d565b905095945050505050565b600081519050614fb181613682565b92915050565b600060208284031215614fcd57614fcc61364c565b5b6000614fdb84828501614fa2565b91505092915050565b6000614fef82613711565b9150614ffa83613711565b925082820390508181111561501257615011614788565b5b92915050565b7f4e487b7100000000000000000000000000000000000000000000000000000000600052603160045260246000fdfea2646970667358221220cf48449a4f3416aa606fd8ad10e4f90a1e2dbd8bd78d0ccdcaa2d3ecab375c9f64736f6c63430008110033",
  "devdoc": {
    "kind": "dev",
    "methods": {
      "approve(address,uint256)": {
        "details": "See {IERC721-approve}."
      },
      "balanceOf(address)": {
        "details": "See {IERC721-balanceOf}."
      },
      "getApproved(uint256)": {
        "details": "See {IERC721-getApproved}."
      },
      "isApprovedForAll(address,address)": {
        "details": "See {IERC721-isApprovedForAll}."
      },
      "name()": {
        "details": "See {IERC721Metadata-name}."
      },
      "owner()": {
        "details": "Returns the address of the current owner."
      },
      "ownerOf(uint256)": {
        "details": "Gets the owner of the specified token ID. Names become unowned      when their registration expires.",
        "params": {
          "tokenId": "uint256 ID of the token to query the owner of"
        },
        "returns": {
          "_0": "address currently marked as the owner of the given token ID"
        }
      },
      "reclaim(uint256,address)": {
        "details": "Reclaim ownership of a name in FNS, if you own it in the registrar."
      },
      "register(string,address,uint256,address)": {
        "details": "Register a name.",
        "params": {
          "_name": "The name to registry",
          "_owner": "The address that should own the registration.",
          "duration": "Duration in seconds for the registration."
        }
      },
      "registerOnly(string,address,uint256)": {
        "details": "Register a name, without modifying the registry.",
        "params": {
          "_name": "The name to registry",
          "_owner": "The address that should own the registration.",
          "duration": "Duration in seconds for the registration."
        }
      },
      "renounceOwnership()": {
        "details": "Leaves the contract without owner. It will not be possible to call `onlyOwner` functions anymore. Can only be called by the current owner. NOTE: Renouncing ownership will leave the contract without an owner, thereby removing any functionality that is only available to the owner."
      },
      "safeTransferFrom(address,address,uint256)": {
        "details": "See {IERC721-safeTransferFrom}."
      },
      "safeTransferFrom(address,address,uint256,bytes)": {
        "details": "See {IERC721-safeTransferFrom}."
      },
      "setApprovalForAll(address,bool)": {
        "details": "See {IERC721-setApprovalForAll}."
      },
      "symbol()": {
        "details": "See {IERC721Metadata-symbol}."
      },
      "tokenByIndex(uint256)": {
        "details": "See {IERC721Enumerable-tokenByIndex}."
      },
      "tokenOfOwnerByIndex(address,uint256)": {
        "details": "See {IERC721Enumerable-tokenOfOwnerByIndex}."
      },
      "tokenURI(uint256)": {
        "details": "See {IERC721Metadata-tokenURI}."
      },
      "totalSupply()": {
        "details": "See {IERC721Enumerable-totalSupply}."
      },
      "transferFrom(address,address,uint256)": {
        "details": "See {IERC721-transferFrom}."
      },
      "transferOwnership(address)": {
        "details": "Transfers ownership of the contract to a new account (`newOwner`). Can only be called by the current owner."
      }
    },
    "version": 1
  },
  "userdoc": {
    "kind": "user",
    "methods": {},
    "version": 1
  },
  "storageLayout": {
    "storage": [
      {
        "astId": 2343,
        "contract": "contracts/Registrar.sol:Registrar",
        "label": "_name",
        "offset": 0,
        "slot": "0",
        "type": "t_string_storage"
      },
      {
        "astId": 2345,
        "contract": "contracts/Registrar.sol:Registrar",
        "label": "_symbol",
        "offset": 0,
        "slot": "1",
        "type": "t_string_storage"
      },
      {
        "astId": 2349,
        "contract": "contracts/Registrar.sol:Registrar",
        "label": "_owners",
        "offset": 0,
        "slot": "2",
        "type": "t_mapping(t_uint256,t_address)"
      },
      {
        "astId": 2353,
        "contract": "contracts/Registrar.sol:Registrar",
        "label": "_balances",
        "offset": 0,
        "slot": "3",
        "type": "t_mapping(t_address,t_uint256)"
      },
      {
        "astId": 2357,
        "contract": "contracts/Registrar.sol:Registrar",
        "label": "_tokenApprovals",
        "offset": 0,
        "slot": "4",
        "type": "t_mapping(t_uint256,t_address)"
      },
      {
        "astId": 2363,
        "contract": "contracts/Registrar.sol:Registrar",
        "label": "_operatorApprovals",
        "offset": 0,
        "slot": "5",
        "type": "t_mapping(t_address,t_mapping(t_address,t_bool))"
      },
      {
        "astId": 3277,
        "contract": "contracts/Registrar.sol:Registrar",
        "label": "_ownedTokens",
        "offset": 0,
        "slot": "6",
        "type": "t_mapping(t_address,t_mapping(t_uint256,t_uint256))"
      },
      {
        "astId": 3281,
        "contract": "contracts/Registrar.sol:Registrar",
        "label": "_ownedTokensIndex",
        "offset": 0,
        "slot": "7",
        "type": "t_mapping(t_uint256,t_uint256)"
      },
      {
        "astId": 3284,
        "contract": "contracts/Registrar.sol:Registrar",
        "label": "_allTokens",
        "offset": 0,
        "slot": "8",
        "type": "t_array(t_uint256)dyn_storage"
      },
      {
        "astId": 3288,
        "contract": "contracts/Registrar.sol:Registrar",
        "label": "_allTokensIndex",
        "offset": 0,
        "slot": "9",
        "type": "t_mapping(t_uint256,t_uint256)"
      },
      {
        "astId": 4771,
        "contract": "contracts/Registrar.sol:Registrar",
        "label": "_owner",
        "offset": 0,
        "slot": "10",
        "type": "t_address"
      },
      {
        "astId": 275,
        "contract": "contracts/Registrar.sol:Registrar",
        "label": "expiries",
        "offset": 0,
        "slot": "11",
        "type": "t_mapping(t_uint256,t_uint256)"
      },
      {
        "astId": 278,
        "contract": "contracts/Registrar.sol:Registrar",
        "label": "fns",
        "offset": 0,
        "slot": "12",
        "type": "t_contract(FNS)1599"
      },
      {
        "astId": 280,
        "contract": "contracts/Registrar.sol:Registrar",
        "label": "baseNode",
        "offset": 0,
        "slot": "13",
        "type": "t_bytes32"
      },
      {
        "astId": 284,
        "contract": "contracts/Registrar.sol:Registrar",
        "label": "controllers",
        "offset": 0,
        "slot": "14",
        "type": "t_mapping(t_address,t_bool)"
      },
      {
        "astId": 291,
        "contract": "contracts/Registrar.sol:Registrar",
        "label": "names",
        "offset": 0,
        "slot": "15",
        "type": "t_mapping(t_uint256,t_string_storage)"
      },
      {
        "astId": 295,
        "contract": "contracts/Registrar.sol:Registrar",
        "label": "nodeToId",
        "offset": 0,
        "slot": "16",
        "type": "t_mapping(t_bytes32,t_uint256)"
      },
      {
        "astId": 297,
        "contract": "contracts/Registrar.sol:Registrar",
        "label": "_baseUri",
        "offset": 0,
        "slot": "17",
        "type": "t_string_storage"
      }
    ],
    "types": {
      "t_address": {
        "encoding": "inplace",
        "label": "address",
        "numberOfBytes": "20"
      },
      "t_array(t_uint256)dyn_storage": {
        "base": "t_uint256",
        "encoding": "dynamic_array",
        "label": "uint256[]",
        "numberOfBytes": "32"
      },
      "t_bool": {
        "encoding": "inplace",
        "label": "bool",
        "numberOfBytes": "1"
      },
      "t_bytes32": {
        "encoding": "inplace",
        "label": "bytes32",
        "numberOfBytes": "32"
      },
      "t_contract(FNS)1599": {
        "encoding": "inplace",
        "label": "contract FNS",
        "numberOfBytes": "20"
      },
      "t_mapping(t_address,t_bool)": {
        "encoding": "mapping",
        "key": "t_address",
        "label": "mapping(address => bool)",
        "numberOfBytes": "32",
        "value": "t_bool"
      },
      "t_mapping(t_address,t_mapping(t_address,t_bool))": {
        "encoding": "mapping",
        "key": "t_address",
        "label": "mapping(address => mapping(address => bool))",
        "numberOfBytes": "32",
        "value": "t_mapping(t_address,t_bool)"
      },
      "t_mapping(t_address,t_mapping(t_uint256,t_uint256))": {
        "encoding": "mapping",
        "key": "t_address",
        "label": "mapping(address => mapping(uint256 => uint256))",
        "numberOfBytes": "32",
        "value": "t_mapping(t_uint256,t_uint256)"
      },
      "t_mapping(t_address,t_uint256)": {
        "encoding": "mapping",
        "key": "t_address",
        "label": "mapping(address => uint256)",
        "numberOfBytes": "32",
        "value": "t_uint256"
      },
      "t_mapping(t_bytes32,t_uint256)": {
        "encoding": "mapping",
        "key": "t_bytes32",
        "label": "mapping(bytes32 => uint256)",
        "numberOfBytes": "32",
        "value": "t_uint256"
      },
      "t_mapping(t_uint256,t_address)": {
        "encoding": "mapping",
        "key": "t_uint256",
        "label": "mapping(uint256 => address)",
        "numberOfBytes": "32",
        "value": "t_address"
      },
      "t_mapping(t_uint256,t_string_storage)": {
        "encoding": "mapping",
        "key": "t_uint256",
        "label": "mapping(uint256 => string)",
        "numberOfBytes": "32",
        "value": "t_string_storage"
      },
      "t_mapping(t_uint256,t_uint256)": {
        "encoding": "mapping",
        "key": "t_uint256",
        "label": "mapping(uint256 => uint256)",
        "numberOfBytes": "32",
        "value": "t_uint256"
      },
      "t_string_storage": {
        "encoding": "bytes",
        "label": "string",
        "numberOfBytes": "32"
      },
      "t_uint256": {
        "encoding": "inplace",
        "label": "uint256",
        "numberOfBytes": "32"
      }
    }
  }
}