{
  "address": "0xed9bd04b1BB87Abe2EfF583A977514940c95699c",
  "abi": [
    {
      "inputs": [
        {
          "internalType": "contract FNS",
          "name": "_fns",
          "type": "address"
        },
        {
          "internalType": "address",
          "name": "_trustedRegistrarController",
          "type": "address"
        },
        {
          "internalType": "address",
          "name": "_trustedReverseRegistrar",
          "type": "address"
        }
      ],
      "stateMutability": "nonpayable",
      "type": "constructor"
    },
    {
      "anonymous": false,
      "inputs": [
        {
          "indexed": true,
          "internalType": "bytes32",
          "name": "node",
          "type": "bytes32"
        },
        {
          "indexed": false,
          "internalType": "uint256",
          "name": "coinType",
          "type": "uint256"
        },
        {
          "indexed": false,
          "internalType": "bytes",
          "name": "newAddress",
          "type": "bytes"
        }
      ],
      "name": "AddressChanged",
      "type": "event"
    },
    {
      "anonymous": false,
      "inputs": [
        {
          "indexed": true,
          "internalType": "address",
          "name": "owner",
          "type": "address"
        },
        {
          "indexed": true,
          "internalType": "address",
          "name": "operator",
          "type": "address"
        },
        {
          "indexed": false,
          "internalType": "bool",
          "name": "approved",
          "type": "bool"
        }
      ],
      "name": "ApprovalForAll",
      "type": "event"
    },
    {
      "anonymous": false,
      "inputs": [
        {
          "indexed": true,
          "internalType": "bytes32",
          "name": "node",
          "type": "bytes32"
        },
        {
          "indexed": false,
          "internalType": "bytes",
          "name": "hash",
          "type": "bytes"
        }
      ],
      "name": "ContenthashChanged",
      "type": "event"
    },
    {
      "anonymous": false,
      "inputs": [
        {
          "indexed": true,
          "internalType": "bytes32",
          "name": "node",
          "type": "bytes32"
        },
        {
          "indexed": false,
          "internalType": "string",
          "name": "name",
          "type": "string"
        }
      ],
      "name": "NameChanged",
      "type": "event"
    },
    {
      "anonymous": false,
      "inputs": [
        {
          "indexed": true,
          "internalType": "bytes32",
          "name": "node",
          "type": "bytes32"
        },
        {
          "indexed": true,
          "internalType": "string",
          "name": "indexedKey",
          "type": "string"
        },
        {
          "indexed": false,
          "internalType": "string",
          "name": "key",
          "type": "string"
        },
        {
          "indexed": false,
          "internalType": "string",
          "name": "value",
          "type": "string"
        }
      ],
      "name": "TextChanged",
      "type": "event"
    },
    {
      "anonymous": false,
      "inputs": [
        {
          "indexed": true,
          "internalType": "bytes32",
          "name": "node",
          "type": "bytes32"
        },
        {
          "indexed": false,
          "internalType": "uint64",
          "name": "newVersion",
          "type": "uint64"
        }
      ],
      "name": "VersionChanged",
      "type": "event"
    },
    {
      "inputs": [
        {
          "internalType": "bytes32",
          "name": "node",
          "type": "bytes32"
        }
      ],
      "name": "addr",
      "outputs": [
        {
          "internalType": "address payable",
          "name": "",
          "type": "address"
        }
      ],
      "stateMutability": "view",
      "type": "function"
    },
    {
      "inputs": [
        {
          "internalType": "bytes32",
          "name": "node",
          "type": "bytes32"
        },
        {
          "internalType": "uint256",
          "name": "coinType",
          "type": "uint256"
        }
      ],
      "name": "addr",
      "outputs": [
        {
          "internalType": "bytes",
          "name": "",
          "type": "bytes"
        }
      ],
      "stateMutability": "view",
      "type": "function"
    },
    {
      "inputs": [
        {
          "internalType": "bytes32",
          "name": "node",
          "type": "bytes32"
        }
      ],
      "name": "clearRecords",
      "outputs": [],
      "stateMutability": "nonpayable",
      "type": "function"
    },
    {
      "inputs": [
        {
          "internalType": "bytes32",
          "name": "node",
          "type": "bytes32"
        }
      ],
      "name": "contenthash",
      "outputs": [
        {
          "internalType": "bytes",
          "name": "",
          "type": "bytes"
        }
      ],
      "stateMutability": "view",
      "type": "function"
    },
    {
      "inputs": [
        {
          "internalType": "address",
          "name": "account",
          "type": "address"
        },
        {
          "internalType": "address",
          "name": "operator",
          "type": "address"
        }
      ],
      "name": "isApprovedForAll",
      "outputs": [
        {
          "internalType": "bool",
          "name": "",
          "type": "bool"
        }
      ],
      "stateMutability": "view",
      "type": "function"
    },
    {
      "inputs": [
        {
          "internalType": "bytes[]",
          "name": "data",
          "type": "bytes[]"
        }
      ],
      "name": "multicall",
      "outputs": [
        {
          "internalType": "bytes[]",
          "name": "results",
          "type": "bytes[]"
        }
      ],
      "stateMutability": "nonpayable",
      "type": "function"
    },
    {
      "inputs": [
        {
          "internalType": "bytes32",
          "name": "nodehash",
          "type": "bytes32"
        },
        {
          "internalType": "bytes[]",
          "name": "data",
          "type": "bytes[]"
        }
      ],
      "name": "multicallWithNodeCheck",
      "outputs": [
        {
          "internalType": "bytes[]",
          "name": "results",
          "type": "bytes[]"
        }
      ],
      "stateMutability": "nonpayable",
      "type": "function"
    },
    {
      "inputs": [
        {
          "internalType": "bytes32",
          "name": "node",
          "type": "bytes32"
        }
      ],
      "name": "name",
      "outputs": [
        {
          "internalType": "string",
          "name": "",
          "type": "string"
        }
      ],
      "stateMutability": "view",
      "type": "function"
    },
    {
      "inputs": [
        {
          "internalType": "bytes32",
          "name": "",
          "type": "bytes32"
        }
      ],
      "name": "recordVersions",
      "outputs": [
        {
          "internalType": "uint64",
          "name": "",
          "type": "uint64"
        }
      ],
      "stateMutability": "view",
      "type": "function"
    },
    {
      "inputs": [
        {
          "internalType": "bytes32",
          "name": "node",
          "type": "bytes32"
        },
        {
          "internalType": "uint256",
          "name": "coinType",
          "type": "uint256"
        },
        {
          "internalType": "bytes",
          "name": "a",
          "type": "bytes"
        }
      ],
      "name": "setAddr",
      "outputs": [],
      "stateMutability": "nonpayable",
      "type": "function"
    },
    {
      "inputs": [
        {
          "internalType": "bytes32",
          "name": "node",
          "type": "bytes32"
        },
        {
          "internalType": "address",
          "name": "a",
          "type": "address"
        }
      ],
      "name": "setAddr",
      "outputs": [],
      "stateMutability": "nonpayable",
      "type": "function"
    },
    {
      "inputs": [
        {
          "internalType": "bytes32",
          "name": "node",
          "type": "bytes32"
        },
        {
          "internalType": "uint256[]",
          "name": "coinTypes",
          "type": "uint256[]"
        },
        {
          "internalType": "bytes[]",
          "name": "addrs",
          "type": "bytes[]"
        }
      ],
      "name": "setAddrs",
      "outputs": [],
      "stateMutability": "nonpayable",
      "type": "function"
    },
    {
      "inputs": [
        {
          "internalType": "address",
          "name": "operator",
          "type": "address"
        },
        {
          "internalType": "bool",
          "name": "approved",
          "type": "bool"
        }
      ],
      "name": "setApprovalForAll",
      "outputs": [],
      "stateMutability": "nonpayable",
      "type": "function"
    },
    {
      "inputs": [
        {
          "internalType": "bytes32",
          "name": "node",
          "type": "bytes32"
        },
        {
          "internalType": "bytes",
          "name": "hash",
          "type": "bytes"
        }
      ],
      "name": "setContenthash",
      "outputs": [],
      "stateMutability": "nonpayable",
      "type": "function"
    },
    {
      "inputs": [
        {
          "internalType": "bytes32",
          "name": "node",
          "type": "bytes32"
        },
        {
          "internalType": "string",
          "name": "newName",
          "type": "string"
        }
      ],
      "name": "setName",
      "outputs": [],
      "stateMutability": "nonpayable",
      "type": "function"
    },
    {
      "inputs": [
        {
          "internalType": "bytes32",
          "name": "node",
          "type": "bytes32"
        },
        {
          "internalType": "string",
          "name": "key",
          "type": "string"
        },
        {
          "internalType": "string",
          "name": "value",
          "type": "string"
        }
      ],
      "name": "setText",
      "outputs": [],
      "stateMutability": "nonpayable",
      "type": "function"
    },
    {
      "inputs": [
        {
          "internalType": "bytes32",
          "name": "node",
          "type": "bytes32"
        },
        {
          "internalType": "string[]",
          "name": "keys",
          "type": "string[]"
        },
        {
          "internalType": "string[]",
          "name": "values",
          "type": "string[]"
        }
      ],
      "name": "setTexts",
      "outputs": [],
      "stateMutability": "nonpayable",
      "type": "function"
    },
    {
      "inputs": [
        {
          "internalType": "bytes4",
          "name": "interfaceID",
          "type": "bytes4"
        }
      ],
      "name": "supportsInterface",
      "outputs": [
        {
          "internalType": "bool",
          "name": "",
          "type": "bool"
        }
      ],
      "stateMutability": "view",
      "type": "function"
    },
    {
      "inputs": [
        {
          "internalType": "bytes32",
          "name": "node",
          "type": "bytes32"
        },
        {
          "internalType": "string",
          "name": "key",
          "type": "string"
        }
      ],
      "name": "text",
      "outputs": [
        {
          "internalType": "string",
          "name": "",
          "type": "string"
        }
      ],
      "stateMutability": "view",
      "type": "function"
    }
  ],
  "transactionHash": "0xb6c7b3348355eed601ab1139889b14a359e934ead17f7ccb6cf7daf72aca602f",
  "args": [
    "0x916915d0d41EaA8AAEd70b2A5Fb006FFc213961b",
    "0xDA3c407a23Ef96930f1A07903fB8360D8926991E",
    "0xc49833d827b01e1465c65221A59885Fb71614a26"
  ],
  "numDeployments": 1,
  "solcInputHash": "8e4f1a12a8d63d08cb226f43a23260a9",
  "bytecode": "0x60e06040523480156200001157600080fd5b5060405162001cf438038062001cf48339810160408190526200003491620000fd565b6001600160a01b0382166200007f5760405162461bcd60e51b815260206004820152600c60248201526b7a65726f206164647265737360a01b60448201526064015b60405180910390fd5b6001600160a01b038116620000c65760405162461bcd60e51b815260206004820152600c60248201526b7a65726f206164647265737360a01b604482015260640162000076565b6001600160a01b0392831660805290821660a0521660c05262000151565b6001600160a01b0381168114620000fa57600080fd5b50565b6000806000606084860312156200011357600080fd5b83516200012081620000e4565b60208501519093506200013381620000e4565b60408501519092506200014681620000e4565b809150509250925092565b60805160a05160c051611b73620001816000396000610e2c01526000610dfa01526000610e740152611b736000f3fe608060405234801561001057600080fd5b50600436106101215760003560e01c80638b95dd71116100ad578063d700ff3311610071578063d700ff3314610279578063e32954eb146102ba578063e845bcdb146102cd578063e985e9c5146102e0578063f1cb7e061461031c57600080fd5b80638b95dd711461020d578063a22cb46514610220578063ac9650d814610233578063bc1c58d114610253578063d5fa2b001461026657600080fd5b80633603d758116100f45780633603d758146101895780633b3b57de1461019c57806359d1d43c146101c7578063691f3431146101e757806377372213146101fa57600080fd5b806301ffc9a71461012657806310f13a8c1461014e5780632473313614610163578063304e6ade14610176575b600080fd5b610139610134366004611267565b61032f565b60405190151581526020015b60405180910390f35b61016161015c3660046112d9565b610340565b005b610161610171366004611396565b610428565b6101616101843660046113fe565b610606565b610161610197366004611449565b6106a2565b6101af6101aa366004611449565b610756565b6040516001600160a01b039091168152602001610145565b6101da6101d53660046113fe565b610789565b60405161014591906114a8565b6101da6101f5366004611449565b610868565b6101616102083660046113fe565b610926565b61016161021b3660046114d1565b6109b4565b61016161022e3660046115ac565b610a57565b6102466102413660046115ea565b610b0f565b604051610145919061162b565b6101da610261366004611449565b610b1d565b61016161027436600461168d565b610b56565b6102a2610287366004611449565b6000602081905290815260409020546001600160401b031681565b6040516001600160401b039091168152602001610145565b6102466102c83660046116b2565b610b91565b6101616102db366004611396565b610ba6565b6101396102ee3660046116f0565b6001600160a01b03918216600090815260056020908152604080832093909416825291909152205460ff1690565b6101da61032a36600461171e565b610d01565b600061033a82610dc8565b92915050565b8461034a81610ded565b61036f5760405162461bcd60e51b815260040161036690611740565b60405180910390fd5b600086815260208181526040808320546001600160401b0316835260048252808320898452909152908190209051849184916103ae9089908990611766565b908152602001604051809103902091826103c99291906117fe565b5084846040516103da929190611766565b6040518091039020867f448bc014f1536726cf8d54ff3d6481ed3cbc683c2591ca204274009afa09b1a18787878760405161041894939291906118e6565b60405180910390a3505050505050565b8461043281610ded565b61044e5760405162461bcd60e51b815260040161036690611740565b838281146104875760405162461bcd60e51b81526020600482015260066024820152650d8cadccee8d60d31b6044820152606401610366565b60005b818110156105fc578484828181106104a4576104a4611918565b90506020028101906104b6919061192e565b60008a815260208181526040808320546001600160401b03168352600482528083208d845290915290208989858181106104f2576104f2611918565b9050602002810190610504919061192e565b604051610512929190611766565b9081526020016040518091039020918261052d9291906117fe565b5086868281811061054057610540611918565b9050602002810190610552919061192e565b604051610560929190611766565b6040518091039020887f448bc014f1536726cf8d54ff3d6481ed3cbc683c2591ca204274009afa09b1a189898581811061059c5761059c611918565b90506020028101906105ae919061192e565b8989878181106105c0576105c0611918565b90506020028101906105d2919061192e565b6040516105e294939291906118e6565b60405180910390a3806105f48161198a565b91505061048a565b5050505050505050565b8261061081610ded565b61062c5760405162461bcd60e51b815260040161036690611740565b600084815260208181526040808320546001600160401b031683526002825280832087845290915290206106618385836117fe565b50837fe379c1624ed7e714cc0937528a32359d69d5281337765313dba4e081b72d757884846040516106949291906119a3565b60405180910390a250505050565b806106ac81610ded565b6106c85760405162461bcd60e51b815260040161036690611740565b600082815260208190526040812080546001600160401b0316916106eb836119b7565b82546101009290920a6001600160401b03818102199093169183160217909155600084815260208181526040918290205491519190921681528492507fc6621ccb8f3f5a04bb6502154b2caf6adf5983fe76dfef1cfc9c42e3579db444910160405180910390a25050565b600080610765836101cd610d01565b905080516000036107795750600092915050565b61078281610f27565b9392505050565b600083815260208181526040808320546001600160401b0316835260048252808320868452909152908190209051606091906107c89085908590611766565b908152602001604051809103902080546107e190611776565b80601f016020809104026020016040519081016040528092919081815260200182805461080d90611776565b801561085a5780601f1061082f5761010080835404028352916020019161085a565b820191906000526020600020905b81548152906001019060200180831161083d57829003601f168201915b505050505090509392505050565b600081815260208181526040808320546001600160401b031683526003825280832084845290915290208054606091906108a190611776565b80601f01602080910402602001604051908101604052809291908181526020018280546108cd90611776565b801561091a5780601f106108ef5761010080835404028352916020019161091a565b820191906000526020600020905b8154815290600101906020018083116108fd57829003601f168201915b50505050509050919050565b8261093081610ded565b61094c5760405162461bcd60e51b815260040161036690611740565b600084815260208181526040808320546001600160401b031683526003825280832087845290915290206109818385836117fe565b50837fb7d29e911041e8d9b843369e890bcb72c9388692ba48b65ac54e7214c4c348f784846040516106949291906119a3565b826109be81610ded565b6109da5760405162461bcd60e51b815260040161036690611740565b837f65412581168e88a1e60c6459d7f44ae83ad0832e670826c05a4e2476b57af7528484604051610a0c9291906119dd565b60405180910390a2600084815260208181526040808320546001600160401b031683526001825280832087845282528083208684529091529020610a5083826119f6565b5050505050565b6001600160a01b0382163303610aa35760405162461bcd60e51b815260206004820152601160248201527030b8383937bb32903a379031b0b63632b960791b6044820152606401610366565b3360008181526005602090815260408083206001600160a01b03871680855290835292819020805460ff191686151590811790915590519081529192917f17307eab39ab6107e8899845ad3d59bd9653f200f220920489ca2b5937696c31910160405180910390a35050565b606061078260008484610f7a565b600081815260208181526040808320546001600160401b031683526002825280832084845290915290208054606091906108a190611776565b81610b6081610ded565b610b7c5760405162461bcd60e51b815260040161036690611740565b610b8c836101cd61021b85611182565b505050565b6060610b9e848484610f7a565b949350505050565b84610bb081610ded565b610bcc5760405162461bcd60e51b815260040161036690611740565b83828114610c055760405162461bcd60e51b81526020600482015260066024820152650d8cadccee8d60d31b6044820152606401610366565b60005b818110156105fc576000878783818110610c2457610c24611918565b905060200201359050858583818110610c3f57610c3f611918565b9050602002810190610c51919061192e565b60008b815260208181526040808320546001600160401b03168352600182528083208e84528252808320868452909152902091610c8f9190836117fe565b50887f65412581168e88a1e60c6459d7f44ae83ad0832e670826c05a4e2476b57af75282888886818110610cc557610cc5611918565b9050602002810190610cd7919061192e565b604051610ce693929190611ab5565b60405180910390a25080610cf98161198a565b915050610c08565b600082815260208181526040808320546001600160401b031683526001825280832085845282528083208484529091529020805460609190610d4290611776565b80601f0160208091040260200160405190810160405280929190818152602001828054610d6e90611776565b8015610dbb5780601f10610d9057610100808354040283529160200191610dbb565b820191906000526020600020905b815481529060010190602001808311610d9e57829003601f168201915b5050505050905092915050565b60006001600160e01b03198216631674750f60e21b148061033a575061033a826111b2565b6000336001600160a01b037f0000000000000000000000000000000000000000000000000000000000000000161480610e4e5750336001600160a01b037f000000000000000000000000000000000000000000000000000000000000000016145b15610e5b57506001919050565b6040516302571be360e01b8152600481018390526000907f00000000000000000000000000000000000000000000000000000000000000006001600160a01b0316906302571be390602401602060405180830381865afa158015610ec3573d6000803e3d6000fd5b505050506040513d601f19601f82011682018060405250810190610ee79190611ad8565b90506001600160a01b03811633148061078257506001600160a01b038116600090815260056020908152604080832033845290915290205460ff16610782565b60008151601414610f6b5760405162461bcd60e51b815260206004820152600e60248201526d0d2dcecc2d8d2c840d8cadccee8d60931b6044820152606401610366565b5060200151600160601b900490565b6060816001600160401b03811115610f9457610f946114bb565b604051908082528060200260200182016040528015610fc757816020015b6060815260200190600190039081610fb25790505b50905060005b8281101561117a578415611089576000848483818110610fef57610fef611918565b9050602002810190611001919061192e565b61101091602491600491611af5565b61101991611b1f565b90508581146110875760405162461bcd60e51b815260206004820152603460248201527f6d756c746963616c6c3a20416c6c207265636f726473206d7573742068617665604482015273040c240dac2e8c6d0d2dcce40dcc2dacad0c2e6d60631b6064820152608401610366565b505b6000803086868581811061109f5761109f611918565b90506020028101906110b1919061192e565b6040516110bf929190611766565b600060405180830381855af49150503d80600081146110fa576040519150601f19603f3d011682016040523d82523d6000602084013e6110ff565b606091505b5091509150816111475760405162461bcd60e51b815260206004820152601360248201527219195b1959d85d1958d85b1b0819985a5b1959606a1b6044820152606401610366565b8084848151811061115a5761115a611918565b6020026020010181905250505080806111729061198a565b915050610fcd565b509392505050565b604080516014808252818301909252606091602082018180368337505050600160601b9290920260208301525090565b60006001600160e01b0319821663691f343160e01b148061033a575061033a8260006001600160e01b0319821663bc1c58d160e01b148061033a575061033a8260006001600160e01b0319821663195e053b60e31b148061033a575061033a8260006001600160e01b0319821663d700ff3360e01b148061033a575061033a8260006001600160e01b03198216634fbf043360e01b148061033a57506301ffc9a760e01b6001600160e01b031983161461033a565b60006020828403121561127957600080fd5b81356001600160e01b03198116811461078257600080fd5b60008083601f8401126112a357600080fd5b5081356001600160401b038111156112ba57600080fd5b6020830191508360208285010111156112d257600080fd5b9250929050565b6000806000806000606086880312156112f157600080fd5b8535945060208601356001600160401b038082111561130f57600080fd5b61131b89838a01611291565b9096509450604088013591508082111561133457600080fd5b5061134188828901611291565b969995985093965092949392505050565b60008083601f84011261136457600080fd5b5081356001600160401b0381111561137b57600080fd5b6020830191508360208260051b85010111156112d257600080fd5b6000806000806000606086880312156113ae57600080fd5b8535945060208601356001600160401b03808211156113cc57600080fd5b6113d889838a01611352565b909650945060408801359150808211156113f157600080fd5b5061134188828901611352565b60008060006040848603121561141357600080fd5b8335925060208401356001600160401b0381111561143057600080fd5b61143c86828701611291565b9497909650939450505050565b60006020828403121561145b57600080fd5b5035919050565b6000815180845260005b818110156114885760208185018101518683018201520161146c565b506000602082860101526020601f19601f83011685010191505092915050565b6020815260006107826020830184611462565b634e487b7160e01b600052604160045260246000fd5b6000806000606084860312156114e657600080fd5b833592506020840135915060408401356001600160401b038082111561150b57600080fd5b818601915086601f83011261151f57600080fd5b813581811115611531576115316114bb565b604051601f8201601f19908116603f01168101908382118183101715611559576115596114bb565b8160405282815289602084870101111561157257600080fd5b8260208601602083013760006020848301015280955050505050509250925092565b6001600160a01b03811681146115a957600080fd5b50565b600080604083850312156115bf57600080fd5b82356115ca81611594565b9150602083013580151581146115df57600080fd5b809150509250929050565b600080602083850312156115fd57600080fd5b82356001600160401b0381111561161357600080fd5b61161f85828601611352565b90969095509350505050565b6000602080830181845280855180835260408601915060408160051b870101925083870160005b8281101561168057603f1988860301845261166e858351611462565b94509285019290850190600101611652565b5092979650505050505050565b600080604083850312156116a057600080fd5b8235915060208301356115df81611594565b6000806000604084860312156116c757600080fd5b8335925060208401356001600160401b038111156116e457600080fd5b61143c86828701611352565b6000806040838503121561170357600080fd5b823561170e81611594565b915060208301356115df81611594565b6000806040838503121561173157600080fd5b50508035926020909101359150565b6020808252600c908201526b1d5b985d5d1a1bdc9a5e995960a21b604082015260600190565b8183823760009101908152919050565b600181811c9082168061178a57607f821691505b6020821081036117aa57634e487b7160e01b600052602260045260246000fd5b50919050565b601f821115610b8c57600081815260208120601f850160051c810160208610156117d75750805b601f850160051c820191505b818110156117f6578281556001016117e3565b505050505050565b6001600160401b03831115611815576118156114bb565b611829836118238354611776565b836117b0565b6000601f84116001811461185d57600085156118455750838201355b600019600387901b1c1916600186901b178355610a50565b600083815260209020601f19861690835b8281101561188e578685013582556020948501946001909201910161186e565b50868210156118ab5760001960f88860031b161c19848701351681555b505060018560011b0183555050505050565b81835281816020850137506000828201602090810191909152601f909101601f19169091010190565b6040815260006118fa6040830186886118bd565b828103602084015261190d8185876118bd565b979650505050505050565b634e487b7160e01b600052603260045260246000fd5b6000808335601e1984360301811261194557600080fd5b8301803591506001600160401b0382111561195f57600080fd5b6020019150368190038213156112d257600080fd5b634e487b7160e01b600052601160045260246000fd5b60006001820161199c5761199c611974565b5060010190565b602081526000610b9e6020830184866118bd565b60006001600160401b038083168181036119d3576119d3611974565b6001019392505050565b828152604060208201526000610b9e6040830184611462565b81516001600160401b03811115611a0f57611a0f6114bb565b611a2381611a1d8454611776565b846117b0565b602080601f831160018114611a585760008415611a405750858301515b600019600386901b1c1916600185901b1785556117f6565b600085815260208120601f198616915b82811015611a8757888601518255948401946001909101908401611a68565b5085821015611aa55787850151600019600388901b60f8161c191681555b5050505050600190811b01905550565b838152604060208201526000611acf6040830184866118bd565b95945050505050565b600060208284031215611aea57600080fd5b815161078281611594565b60008085851115611b0557600080fd5b83861115611b1257600080fd5b5050820193919092039150565b8035602083101561033a57600019602084900360031b1b169291505056fea264697066735822122004711016432c62305399af20a0451ed6d5e76d1775ed7b36f5c036eda6bad80764736f6c63430008110033",
  "devdoc": {
    "kind": "dev",
    "methods": {
      "addr(bytes32)": {
        "params": {
          "node": "The FNS node to query."
        },
        "returns": {
          "_0": "The associated address."
        }
      },
      "clearRecords(bytes32)": {
        "params": {
          "node": "The node to update."
        }
      },
      "contenthash(bytes32)": {
        "params": {
          "node": "The FNS node to query."
        },
        "returns": {
          "_0": "The associated contenthash."
        }
      },
      "name(bytes32)": {
        "params": {
          "node": "The FNS node to query."
        },
        "returns": {
          "_0": "The associated name."
        }
      },
      "setAddr(bytes32,address)": {
        "params": {
          "a": "The address to set.",
          "node": "The node to update."
        }
      },
      "setAddr(bytes32,uint256,bytes)": {
        "params": {
          "a": "The address to set.",
          "coinType": "The coin type of the address.",
          "node": "The node to update."
        }
      },
      "setAddrs(bytes32,uint256[],bytes[])": {
        "params": {
          "addrs": "The addresses to set.",
          "coinTypes": "The coin types of the addresses.",
          "node": "The node to update."
        }
      },
      "setContenthash(bytes32,bytes)": {
        "params": {
          "hash": "The contenthash to set",
          "node": "The node to update."
        }
      },
      "setName(bytes32,string)": {
        "params": {
          "node": "The node to update."
        }
      },
      "setText(bytes32,string,string)": {
        "params": {
          "key": "The key to set.",
          "node": "The node to update.",
          "value": "The text data value to set."
        }
      },
      "setTexts(bytes32,string[],string[])": {
        "params": {
          "keys": "The keys to set.",
          "node": "The node to update.",
          "values": "The text data value to set."
        }
      },
      "text(bytes32,string)": {
        "params": {
          "key": "The text data key to query.",
          "node": "The FNS node to query."
        },
        "returns": {
          "_0": "The associated text data."
        }
      }
    },
    "version": 1
  },
  "userdoc": {
    "kind": "user",
    "methods": {
      "addr(bytes32)": {
        "notice": "Returns the address associated with an FNS node."
      },
      "clearRecords(bytes32)": {
        "notice": "Increments the record version associated with an FNS node. May only be called by the owner of that node in the FNS registry."
      },
      "contenthash(bytes32)": {
        "notice": "Returns the contenthash associated with an FNS node."
      },
      "name(bytes32)": {
        "notice": "Returns the name associated with an FNS node, for reverse records. Defined in EIP181."
      },
      "setAddr(bytes32,address)": {
        "notice": "Sets the address associated with an FNS node. May only be called by the owner of that node in the FNS registry."
      },
      "setAddr(bytes32,uint256,bytes)": {
        "notice": "Sets the address associated with an FNS node. May only be called by the owner of that node in the FNS registry."
      },
      "setAddrs(bytes32,uint256[],bytes[])": {
        "notice": "Sets the addresses associated with FNS node. May only be called by the owner of that node in the FNS registry."
      },
      "setContenthash(bytes32,bytes)": {
        "notice": "Sets the contenthash associated with an FNS node. May only be called by the owner of that node in the FNS registry."
      },
      "setName(bytes32,string)": {
        "notice": "Sets the name associated with an FNS node, for reverse records. May only be called by the owner of that node in the FNS registry."
      },
      "setText(bytes32,string,string)": {
        "notice": "Sets the text data associated with an FNS node and key. May only be called by the owner of that node in the FNS registry."
      },
      "setTexts(bytes32,string[],string[])": {
        "notice": "Sets the text data associated with an FNS node and keys. May only be called by the owner of that node in the FNS registry."
      },
      "text(bytes32,string)": {
        "notice": "Returns the text data associated with an FNS node and key."
      }
    },
    "notice": "A simple resolver anyone can use; only allows the owner of a node to set its address.",
    "version": 1
  },
  "storageLayout": {
    "storage": [
      {
        "astId": 2462,
        "contract": "contracts/PublicResolver.sol:PublicResolver",
        "label": "recordVersions",
        "offset": 0,
        "slot": "0",
        "type": "t_mapping(t_bytes32,t_uint64)"
      },
      {
        "astId": 6949,
        "contract": "contracts/PublicResolver.sol:PublicResolver",
        "label": "versionable_addresses",
        "offset": 0,
        "slot": "1",
        "type": "t_mapping(t_uint64,t_mapping(t_bytes32,t_mapping(t_uint256,t_bytes_storage)))"
      },
      {
        "astId": 7191,
        "contract": "contracts/PublicResolver.sol:PublicResolver",
        "label": "versionable_hashes",
        "offset": 0,
        "slot": "2",
        "type": "t_mapping(t_uint64,t_mapping(t_bytes32,t_bytes_storage))"
      },
      {
        "astId": 7373,
        "contract": "contracts/PublicResolver.sol:PublicResolver",
        "label": "versionable_names",
        "offset": 0,
        "slot": "3",
        "type": "t_mapping(t_uint64,t_mapping(t_bytes32,t_string_storage))"
      },
      {
        "astId": 7456,
        "contract": "contracts/PublicResolver.sol:PublicResolver",
        "label": "versionable_texts",
        "offset": 0,
        "slot": "4",
        "type": "t_mapping(t_uint64,t_mapping(t_bytes32,t_mapping(t_string_memory_ptr,t_string_storage)))"
      },
      {
        "astId": 949,
        "contract": "contracts/PublicResolver.sol:PublicResolver",
        "label": "_operatorApprovals",
        "offset": 0,
        "slot": "5",
        "type": "t_mapping(t_address,t_mapping(t_address,t_bool))"
      }
    ],
    "types": {
      "t_address": {
        "encoding": "inplace",
        "label": "address",
        "numberOfBytes": "20"
      },
      "t_bool": {
        "encoding": "inplace",
        "label": "bool",
        "numberOfBytes": "1"
      },
      "t_bytes32": {
        "encoding": "inplace",
        "label": "bytes32",
        "numberOfBytes": "32"
      },
      "t_bytes_storage": {
        "encoding": "bytes",
        "label": "bytes",
        "numberOfBytes": "32"
      },
      "t_mapping(t_address,t_bool)": {
        "encoding": "mapping",
        "key": "t_address",
        "label": "mapping(address => bool)",
        "numberOfBytes": "32",
        "value": "t_bool"
      },
      "t_mapping(t_address,t_mapping(t_address,t_bool))": {
        "encoding": "mapping",
        "key": "t_address",
        "label": "mapping(address => mapping(address => bool))",
        "numberOfBytes": "32",
        "value": "t_mapping(t_address,t_bool)"
      },
      "t_mapping(t_bytes32,t_bytes_storage)": {
        "encoding": "mapping",
        "key": "t_bytes32",
        "label": "mapping(bytes32 => bytes)",
        "numberOfBytes": "32",
        "value": "t_bytes_storage"
      },
      "t_mapping(t_bytes32,t_mapping(t_string_memory_ptr,t_string_storage))": {
        "encoding": "mapping",
        "key": "t_bytes32",
        "label": "mapping(bytes32 => mapping(string => string))",
        "numberOfBytes": "32",
        "value": "t_mapping(t_string_memory_ptr,t_string_storage)"
      },
      "t_mapping(t_bytes32,t_mapping(t_uint256,t_bytes_storage))": {
        "encoding": "mapping",
        "key": "t_bytes32",
        "label": "mapping(bytes32 => mapping(uint256 => bytes))",
        "numberOfBytes": "32",
        "value": "t_mapping(t_uint256,t_bytes_storage)"
      },
      "t_mapping(t_bytes32,t_string_storage)": {
        "encoding": "mapping",
        "key": "t_bytes32",
        "label": "mapping(bytes32 => string)",
        "numberOfBytes": "32",
        "value": "t_string_storage"
      },
      "t_mapping(t_bytes32,t_uint64)": {
        "encoding": "mapping",
        "key": "t_bytes32",
        "label": "mapping(bytes32 => uint64)",
        "numberOfBytes": "32",
        "value": "t_uint64"
      },
      "t_mapping(t_string_memory_ptr,t_string_storage)": {
        "encoding": "mapping",
        "key": "t_string_memory_ptr",
        "label": "mapping(string => string)",
        "numberOfBytes": "32",
        "value": "t_string_storage"
      },
      "t_mapping(t_uint256,t_bytes_storage)": {
        "encoding": "mapping",
        "key": "t_uint256",
        "label": "mapping(uint256 => bytes)",
        "numberOfBytes": "32",
        "value": "t_bytes_storage"
      },
      "t_mapping(t_uint64,t_mapping(t_bytes32,t_bytes_storage))": {
        "encoding": "mapping",
        "key": "t_uint64",
        "label": "mapping(uint64 => mapping(bytes32 => bytes))",
        "numberOfBytes": "32",
        "value": "t_mapping(t_bytes32,t_bytes_storage)"
      },
      "t_mapping(t_uint64,t_mapping(t_bytes32,t_mapping(t_string_memory_ptr,t_string_storage)))": {
        "encoding": "mapping",
        "key": "t_uint64",
        "label": "mapping(uint64 => mapping(bytes32 => mapping(string => string)))",
        "numberOfBytes": "32",
        "value": "t_mapping(t_bytes32,t_mapping(t_string_memory_ptr,t_string_storage))"
      },
      "t_mapping(t_uint64,t_mapping(t_bytes32,t_mapping(t_uint256,t_bytes_storage)))": {
        "encoding": "mapping",
        "key": "t_uint64",
        "label": "mapping(uint64 => mapping(bytes32 => mapping(uint256 => bytes)))",
        "numberOfBytes": "32",
        "value": "t_mapping(t_bytes32,t_mapping(t_uint256,t_bytes_storage))"
      },
      "t_mapping(t_uint64,t_mapping(t_bytes32,t_string_storage))": {
        "encoding": "mapping",
        "key": "t_uint64",
        "label": "mapping(uint64 => mapping(bytes32 => string))",
        "numberOfBytes": "32",
        "value": "t_mapping(t_bytes32,t_string_storage)"
      },
      "t_string_memory_ptr": {
        "encoding": "bytes",
        "label": "string",
        "numberOfBytes": "32"
      },
      "t_string_storage": {
        "encoding": "bytes",
        "label": "string",
        "numberOfBytes": "32"
      },
      "t_uint256": {
        "encoding": "inplace",
        "label": "uint256",
        "numberOfBytes": "32"
      },
      "t_uint64": {
        "encoding": "inplace",
        "label": "uint64",
        "numberOfBytes": "8"
      }
    }
  }
}