{
  "address": "0x1620524ae061C8Ec6EDBfA19bB6cd138191A834A",
  "abi": [
    {
      "inputs": [
        {
          "internalType": "contract FNS",
          "name": "_fns",
          "type": "address"
        },
        {
          "internalType": "address",
          "name": "_trustedRegistrarController",
          "type": "address"
        },
        {
          "internalType": "address",
          "name": "_trustedReverseRegistrar",
          "type": "address"
        }
      ],
      "stateMutability": "nonpayable",
      "type": "constructor"
    },
    {
      "anonymous": false,
      "inputs": [
        {
          "indexed": true,
          "internalType": "bytes32",
          "name": "node",
          "type": "bytes32"
        },
        {
          "indexed": false,
          "internalType": "uint256",
          "name": "coinType",
          "type": "uint256"
        },
        {
          "indexed": false,
          "internalType": "bytes",
          "name": "newAddress",
          "type": "bytes"
        }
      ],
      "name": "AddressChanged",
      "type": "event"
    },
    {
      "anonymous": false,
      "inputs": [
        {
          "indexed": true,
          "internalType": "address",
          "name": "owner",
          "type": "address"
        },
        {
          "indexed": true,
          "internalType": "address",
          "name": "operator",
          "type": "address"
        },
        {
          "indexed": false,
          "internalType": "bool",
          "name": "approved",
          "type": "bool"
        }
      ],
      "name": "ApprovalForAll",
      "type": "event"
    },
    {
      "anonymous": false,
      "inputs": [
        {
          "indexed": true,
          "internalType": "bytes32",
          "name": "node",
          "type": "bytes32"
        },
        {
          "indexed": false,
          "internalType": "bytes",
          "name": "hash",
          "type": "bytes"
        }
      ],
      "name": "ContenthashChanged",
      "type": "event"
    },
    {
      "anonymous": false,
      "inputs": [
        {
          "indexed": true,
          "internalType": "bytes32",
          "name": "node",
          "type": "bytes32"
        },
        {
          "indexed": false,
          "internalType": "string",
          "name": "name",
          "type": "string"
        }
      ],
      "name": "NameChanged",
      "type": "event"
    },
    {
      "anonymous": false,
      "inputs": [
        {
          "indexed": true,
          "internalType": "bytes32",
          "name": "node",
          "type": "bytes32"
        },
        {
          "indexed": true,
          "internalType": "string",
          "name": "indexedKey",
          "type": "string"
        },
        {
          "indexed": false,
          "internalType": "string",
          "name": "key",
          "type": "string"
        },
        {
          "indexed": false,
          "internalType": "string",
          "name": "value",
          "type": "string"
        }
      ],
      "name": "TextChanged",
      "type": "event"
    },
    {
      "anonymous": false,
      "inputs": [
        {
          "indexed": true,
          "internalType": "bytes32",
          "name": "node",
          "type": "bytes32"
        },
        {
          "indexed": false,
          "internalType": "uint64",
          "name": "newVersion",
          "type": "uint64"
        }
      ],
      "name": "VersionChanged",
      "type": "event"
    },
    {
      "inputs": [
        {
          "internalType": "bytes32",
          "name": "node",
          "type": "bytes32"
        }
      ],
      "name": "addr",
      "outputs": [
        {
          "internalType": "address payable",
          "name": "",
          "type": "address"
        }
      ],
      "stateMutability": "view",
      "type": "function"
    },
    {
      "inputs": [
        {
          "internalType": "bytes32",
          "name": "node",
          "type": "bytes32"
        },
        {
          "internalType": "uint256",
          "name": "coinType",
          "type": "uint256"
        }
      ],
      "name": "addr",
      "outputs": [
        {
          "internalType": "bytes",
          "name": "",
          "type": "bytes"
        }
      ],
      "stateMutability": "view",
      "type": "function"
    },
    {
      "inputs": [
        {
          "internalType": "bytes32",
          "name": "node",
          "type": "bytes32"
        }
      ],
      "name": "clearRecords",
      "outputs": [],
      "stateMutability": "nonpayable",
      "type": "function"
    },
    {
      "inputs": [
        {
          "internalType": "bytes32",
          "name": "node",
          "type": "bytes32"
        }
      ],
      "name": "contenthash",
      "outputs": [
        {
          "internalType": "bytes",
          "name": "",
          "type": "bytes"
        }
      ],
      "stateMutability": "view",
      "type": "function"
    },
    {
      "inputs": [
        {
          "internalType": "address",
          "name": "account",
          "type": "address"
        },
        {
          "internalType": "address",
          "name": "operator",
          "type": "address"
        }
      ],
      "name": "isApprovedForAll",
      "outputs": [
        {
          "internalType": "bool",
          "name": "",
          "type": "bool"
        }
      ],
      "stateMutability": "view",
      "type": "function"
    },
    {
      "inputs": [
        {
          "internalType": "bytes[]",
          "name": "data",
          "type": "bytes[]"
        }
      ],
      "name": "multicall",
      "outputs": [
        {
          "internalType": "bytes[]",
          "name": "results",
          "type": "bytes[]"
        }
      ],
      "stateMutability": "nonpayable",
      "type": "function"
    },
    {
      "inputs": [
        {
          "internalType": "bytes32",
          "name": "nodehash",
          "type": "bytes32"
        },
        {
          "internalType": "bytes[]",
          "name": "data",
          "type": "bytes[]"
        }
      ],
      "name": "multicallWithNodeCheck",
      "outputs": [
        {
          "internalType": "bytes[]",
          "name": "results",
          "type": "bytes[]"
        }
      ],
      "stateMutability": "nonpayable",
      "type": "function"
    },
    {
      "inputs": [
        {
          "internalType": "bytes32",
          "name": "node",
          "type": "bytes32"
        }
      ],
      "name": "name",
      "outputs": [
        {
          "internalType": "string",
          "name": "",
          "type": "string"
        }
      ],
      "stateMutability": "view",
      "type": "function"
    },
    {
      "inputs": [
        {
          "internalType": "bytes32",
          "name": "",
          "type": "bytes32"
        }
      ],
      "name": "recordVersions",
      "outputs": [
        {
          "internalType": "uint64",
          "name": "",
          "type": "uint64"
        }
      ],
      "stateMutability": "view",
      "type": "function"
    },
    {
      "inputs": [
        {
          "internalType": "bytes32",
          "name": "node",
          "type": "bytes32"
        },
        {
          "internalType": "uint256",
          "name": "coinType",
          "type": "uint256"
        },
        {
          "internalType": "bytes",
          "name": "a",
          "type": "bytes"
        }
      ],
      "name": "setAddr",
      "outputs": [],
      "stateMutability": "nonpayable",
      "type": "function"
    },
    {
      "inputs": [
        {
          "internalType": "bytes32",
          "name": "node",
          "type": "bytes32"
        },
        {
          "internalType": "address",
          "name": "a",
          "type": "address"
        }
      ],
      "name": "setAddr",
      "outputs": [],
      "stateMutability": "nonpayable",
      "type": "function"
    },
    {
      "inputs": [
        {
          "internalType": "bytes32",
          "name": "node",
          "type": "bytes32"
        },
        {
          "internalType": "uint256[]",
          "name": "coinTypes",
          "type": "uint256[]"
        },
        {
          "internalType": "bytes[]",
          "name": "addrs",
          "type": "bytes[]"
        }
      ],
      "name": "setAddrs",
      "outputs": [],
      "stateMutability": "nonpayable",
      "type": "function"
    },
    {
      "inputs": [
        {
          "internalType": "address",
          "name": "operator",
          "type": "address"
        },
        {
          "internalType": "bool",
          "name": "approved",
          "type": "bool"
        }
      ],
      "name": "setApprovalForAll",
      "outputs": [],
      "stateMutability": "nonpayable",
      "type": "function"
    },
    {
      "inputs": [
        {
          "internalType": "bytes32",
          "name": "node",
          "type": "bytes32"
        },
        {
          "internalType": "bytes",
          "name": "hash",
          "type": "bytes"
        }
      ],
      "name": "setContenthash",
      "outputs": [],
      "stateMutability": "nonpayable",
      "type": "function"
    },
    {
      "inputs": [
        {
          "internalType": "bytes32",
          "name": "node",
          "type": "bytes32"
        },
        {
          "internalType": "string",
          "name": "newName",
          "type": "string"
        }
      ],
      "name": "setName",
      "outputs": [],
      "stateMutability": "nonpayable",
      "type": "function"
    },
    {
      "inputs": [
        {
          "internalType": "bytes32",
          "name": "node",
          "type": "bytes32"
        },
        {
          "internalType": "string",
          "name": "key",
          "type": "string"
        },
        {
          "internalType": "string",
          "name": "value",
          "type": "string"
        }
      ],
      "name": "setText",
      "outputs": [],
      "stateMutability": "nonpayable",
      "type": "function"
    },
    {
      "inputs": [
        {
          "internalType": "bytes32",
          "name": "node",
          "type": "bytes32"
        },
        {
          "internalType": "string[]",
          "name": "keys",
          "type": "string[]"
        },
        {
          "internalType": "string[]",
          "name": "values",
          "type": "string[]"
        }
      ],
      "name": "setTexts",
      "outputs": [],
      "stateMutability": "nonpayable",
      "type": "function"
    },
    {
      "inputs": [
        {
          "internalType": "bytes4",
          "name": "interfaceID",
          "type": "bytes4"
        }
      ],
      "name": "supportsInterface",
      "outputs": [
        {
          "internalType": "bool",
          "name": "",
          "type": "bool"
        }
      ],
      "stateMutability": "view",
      "type": "function"
    },
    {
      "inputs": [
        {
          "internalType": "bytes32",
          "name": "node",
          "type": "bytes32"
        },
        {
          "internalType": "string",
          "name": "key",
          "type": "string"
        }
      ],
      "name": "text",
      "outputs": [
        {
          "internalType": "string",
          "name": "",
          "type": "string"
        }
      ],
      "stateMutability": "view",
      "type": "function"
    }
  ],
  "transactionHash": "0x6d54142a9381a69fc32c3017d952d7378e64f6e3e30dd40360b05e88de5e6e26",
  "args": [
    "0x5eefe33358d32a61aceb2a13640b72bb6f4bfd11",
    "0x3d5ec2dbe382e293fa8c6a53f15fb0ef3b070cb6",
    "0x805bCf9D3038c0e0F0e8Ab4FbeDaFeD62B300443"
  ],
  "numDeployments": 1,
  "solcInputHash": "0b84a784ed6996055c279db230d93593",
  "bytecode": "0x60e06040523480156200001157600080fd5b5060405162001b5138038062001b5183398101604081905262000034916200006b565b6001600160a01b0392831660805290821660a0521660c052620000bf565b6001600160a01b03811681146200006857600080fd5b50565b6000806000606084860312156200008157600080fd5b83516200008e8162000052565b6020850151909350620000a18162000052565b6040850151909250620000b48162000052565b809150509250925092565b60805160a05160c051611a62620000ef6000396000610dae01526000610d7c01526000610df60152611a626000f3fe608060405234801561001057600080fd5b50600436106101215760003560e01c80638b95dd71116100ad578063d700ff3311610071578063d700ff3314610279578063e32954eb146102ba578063e845bcdb146102cd578063e985e9c5146102e0578063f1cb7e061461031c57600080fd5b80638b95dd711461020d578063a22cb46514610220578063ac9650d814610233578063bc1c58d114610253578063d5fa2b001461026657600080fd5b80633603d758116100f45780633603d758146101895780633b3b57de1461019c57806359d1d43c146101c7578063691f3431146101e757806377372213146101fa57600080fd5b806301ffc9a71461012657806310f13a8c1461014e5780632473313614610163578063304e6ade14610176575b600080fd5b61013961013436600461117c565b61032f565b60405190151581526020015b60405180910390f35b61016161015c3660046111ee565b610340565b005b6101616101713660046112ab565b61040c565b610161610184366004611313565b6105dc565b61016161019736600461135e565b610665565b6101af6101aa36600461135e565b610706565b6040516001600160a01b039091168152602001610145565b6101da6101d5366004611313565b610739565b60405161014591906113bd565b6101da6101f536600461135e565b610818565b610161610208366004611313565b6108d6565b61016161021b3660046113e6565b610951565b61016161022e3660046114c1565b6109e1565b6102466102413660046114ff565b610ab7565b6040516101459190611540565b6101da61026136600461135e565b610ac5565b6101616102743660046115a2565b610afe565b6102a261028736600461135e565b6000602081905290815260409020546001600160401b031681565b6040516001600160401b039091168152602001610145565b6102466102c83660046115c7565b610b26565b6101616102db3660046112ab565b610b3b565b6101396102ee366004611605565b6001600160a01b03918216600090815260056020908152604080832093909416825291909152205460ff1690565b6101da61032a366004611633565b610c83565b600061033a82610d4a565b92915050565b8461034a81610d6f565b61035357600080fd5b600086815260208181526040808320546001600160401b0316835260048252808320898452909152908190209051849184916103929089908990611655565b908152602001604051809103902091826103ad9291906116ed565b5084846040516103be929190611655565b6040518091039020867f448bc014f1536726cf8d54ff3d6481ed3cbc683c2591ca204274009afa09b1a1878787876040516103fc94939291906117d5565b60405180910390a3505050505050565b8461041681610d6f565b61041f57600080fd5b8382811461045d5760405162461bcd60e51b81526020600482015260066024820152650d8cadccee8d60d31b60448201526064015b60405180910390fd5b60005b818110156105d25784848281811061047a5761047a611807565b905060200281019061048c919061181d565b60008a815260208181526040808320546001600160401b03168352600482528083208d845290915290208989858181106104c8576104c8611807565b90506020028101906104da919061181d565b6040516104e8929190611655565b908152602001604051809103902091826105039291906116ed565b5086868281811061051657610516611807565b9050602002810190610528919061181d565b604051610536929190611655565b6040518091039020887f448bc014f1536726cf8d54ff3d6481ed3cbc683c2591ca204274009afa09b1a189898581811061057257610572611807565b9050602002810190610584919061181d565b89898781811061059657610596611807565b90506020028101906105a8919061181d565b6040516105b894939291906117d5565b60405180910390a3806105ca81611879565b915050610460565b5050505050505050565b826105e681610d6f565b6105ef57600080fd5b600084815260208181526040808320546001600160401b031683526002825280832087845290915290206106248385836116ed565b50837fe379c1624ed7e714cc0937528a32359d69d5281337765313dba4e081b72d75788484604051610657929190611892565b60405180910390a250505050565b8061066f81610d6f565b61067857600080fd5b600082815260208190526040812080546001600160401b03169161069b836118a6565b82546101009290920a6001600160401b03818102199093169183160217909155600084815260208181526040918290205491519190921681528492507fc6621ccb8f3f5a04bb6502154b2caf6adf5983fe76dfef1cfc9c42e3579db444910160405180910390a25050565b600080610715836101cd610c83565b905080516000036107295750600092915050565b61073281610ea9565b9392505050565b600083815260208181526040808320546001600160401b0316835260048252808320868452909152908190209051606091906107789085908590611655565b9081526020016040518091039020805461079190611665565b80601f01602080910402602001604051908101604052809291908181526020018280546107bd90611665565b801561080a5780601f106107df5761010080835404028352916020019161080a565b820191906000526020600020905b8154815290600101906020018083116107ed57829003601f168201915b505050505090509392505050565b600081815260208181526040808320546001600160401b0316835260038252808320848452909152902080546060919061085190611665565b80601f016020809104026020016040519081016040528092919081815260200182805461087d90611665565b80156108ca5780601f1061089f576101008083540402835291602001916108ca565b820191906000526020600020905b8154815290600101906020018083116108ad57829003601f168201915b50505050509050919050565b826108e081610d6f565b6108e957600080fd5b600084815260208181526040808320546001600160401b0316835260038252808320878452909152902061091e8385836116ed565b50837fb7d29e911041e8d9b843369e890bcb72c9388692ba48b65ac54e7214c4c348f78484604051610657929190611892565b8261095b81610d6f565b61096457600080fd5b837f65412581168e88a1e60c6459d7f44ae83ad0832e670826c05a4e2476b57af75284846040516109969291906118cc565b60405180910390a2600084815260208181526040808320546001600160401b0316835260018252808320878452825280832086845290915290206109da83826118e5565b5050505050565b6001600160a01b0382163303610a4b5760405162461bcd60e51b815260206004820152602960248201527f455243313135353a2073657474696e6720617070726f76616c20737461747573604482015268103337b91039b2b63360b91b6064820152608401610454565b3360008181526005602090815260408083206001600160a01b03871680855290835292819020805460ff191686151590811790915590519081529192917f17307eab39ab6107e8899845ad3d59bd9653f200f220920489ca2b5937696c31910160405180910390a35050565b606061073260008484610ec8565b600081815260208181526040808320546001600160401b0316835260028252808320848452909152902080546060919061085190611665565b81610b0881610d6f565b610b1157600080fd5b610b21836101cd61021b85611097565b505050565b6060610b33848484610ec8565b949350505050565b84610b4581610d6f565b610b4e57600080fd5b83828114610b875760405162461bcd60e51b81526020600482015260066024820152650d8cadccee8d60d31b6044820152606401610454565b60005b818110156105d2576000878783818110610ba657610ba6611807565b905060200201359050858583818110610bc157610bc1611807565b9050602002810190610bd3919061181d565b60008b815260208181526040808320546001600160401b03168352600182528083208e84528252808320868452909152902091610c119190836116ed565b50887f65412581168e88a1e60c6459d7f44ae83ad0832e670826c05a4e2476b57af75282888886818110610c4757610c47611807565b9050602002810190610c59919061181d565b604051610c68939291906119a4565b60405180910390a25080610c7b81611879565b915050610b8a565b600082815260208181526040808320546001600160401b031683526001825280832085845282528083208484529091529020805460609190610cc490611665565b80601f0160208091040260200160405190810160405280929190818152602001828054610cf090611665565b8015610d3d5780601f10610d1257610100808354040283529160200191610d3d565b820191906000526020600020905b815481529060010190602001808311610d2057829003601f168201915b5050505050905092915050565b60006001600160e01b03198216631674750f60e21b148061033a575061033a826110c7565b6000336001600160a01b037f0000000000000000000000000000000000000000000000000000000000000000161480610dd05750336001600160a01b037f000000000000000000000000000000000000000000000000000000000000000016145b15610ddd57506001919050565b6040516302571be360e01b8152600481018390526000907f00000000000000000000000000000000000000000000000000000000000000006001600160a01b0316906302571be390602401602060405180830381865afa158015610e45573d6000803e3d6000fd5b505050506040513d601f19601f82011682018060405250810190610e6991906119c7565b90506001600160a01b03811633148061073257506001600160a01b038116600090815260056020908152604080832033845290915290205460ff16610732565b60008151601414610eb957600080fd5b5060200151600160601b900490565b6060816001600160401b03811115610ee257610ee26113d0565b604051908082528060200260200182016040528015610f1557816020015b6060815260200190600190039081610f005790505b50905060005b8281101561108f578415610fd7576000848483818110610f3d57610f3d611807565b9050602002810190610f4f919061181d565b610f5e916024916004916119e4565b610f6791611a0e565b9050858114610fd55760405162461bcd60e51b815260206004820152603460248201527f6d756c746963616c6c3a20416c6c207265636f726473206d7573742068617665604482015273040c240dac2e8c6d0d2dcce40dcc2dacad0c2e6d60631b6064820152608401610454565b505b60008030868685818110610fed57610fed611807565b9050602002810190610fff919061181d565b60405161100d929190611655565b600060405180830381855af49150503d8060008114611048576040519150601f19603f3d011682016040523d82523d6000602084013e61104d565b606091505b50915091508161105c57600080fd5b8084848151811061106f5761106f611807565b60200260200101819052505050808061108790611879565b915050610f1b565b509392505050565b604080516014808252818301909252606091602082018180368337505050600160601b9290920260208301525090565b60006001600160e01b0319821663691f343160e01b148061033a575061033a8260006001600160e01b0319821663bc1c58d160e01b148061033a575061033a8260006001600160e01b0319821663195e053b60e31b148061033a575061033a8260006001600160e01b0319821663d700ff3360e01b148061033a575061033a8260006001600160e01b03198216634fbf043360e01b148061033a57506301ffc9a760e01b6001600160e01b031983161461033a565b60006020828403121561118e57600080fd5b81356001600160e01b03198116811461073257600080fd5b60008083601f8401126111b857600080fd5b5081356001600160401b038111156111cf57600080fd5b6020830191508360208285010111156111e757600080fd5b9250929050565b60008060008060006060868803121561120657600080fd5b8535945060208601356001600160401b038082111561122457600080fd5b61123089838a016111a6565b9096509450604088013591508082111561124957600080fd5b50611256888289016111a6565b969995985093965092949392505050565b60008083601f84011261127957600080fd5b5081356001600160401b0381111561129057600080fd5b6020830191508360208260051b85010111156111e757600080fd5b6000806000806000606086880312156112c357600080fd5b8535945060208601356001600160401b03808211156112e157600080fd5b6112ed89838a01611267565b9096509450604088013591508082111561130657600080fd5b5061125688828901611267565b60008060006040848603121561132857600080fd5b8335925060208401356001600160401b0381111561134557600080fd5b611351868287016111a6565b9497909650939450505050565b60006020828403121561137057600080fd5b5035919050565b6000815180845260005b8181101561139d57602081850181015186830182015201611381565b506000602082860101526020601f19601f83011685010191505092915050565b6020815260006107326020830184611377565b634e487b7160e01b600052604160045260246000fd5b6000806000606084860312156113fb57600080fd5b833592506020840135915060408401356001600160401b038082111561142057600080fd5b818601915086601f83011261143457600080fd5b813581811115611446576114466113d0565b604051601f8201601f19908116603f0116810190838211818310171561146e5761146e6113d0565b8160405282815289602084870101111561148757600080fd5b8260208601602083013760006020848301015280955050505050509250925092565b6001600160a01b03811681146114be57600080fd5b50565b600080604083850312156114d457600080fd5b82356114df816114a9565b9150602083013580151581146114f457600080fd5b809150509250929050565b6000806020838503121561151257600080fd5b82356001600160401b0381111561152857600080fd5b61153485828601611267565b90969095509350505050565b6000602080830181845280855180835260408601915060408160051b870101925083870160005b8281101561159557603f19888603018452611583858351611377565b94509285019290850190600101611567565b5092979650505050505050565b600080604083850312156115b557600080fd5b8235915060208301356114f4816114a9565b6000806000604084860312156115dc57600080fd5b8335925060208401356001600160401b038111156115f957600080fd5b61135186828701611267565b6000806040838503121561161857600080fd5b8235611623816114a9565b915060208301356114f4816114a9565b6000806040838503121561164657600080fd5b50508035926020909101359150565b8183823760009101908152919050565b600181811c9082168061167957607f821691505b60208210810361169957634e487b7160e01b600052602260045260246000fd5b50919050565b601f821115610b2157600081815260208120601f850160051c810160208610156116c65750805b601f850160051c820191505b818110156116e5578281556001016116d2565b505050505050565b6001600160401b03831115611704576117046113d0565b611718836117128354611665565b8361169f565b6000601f84116001811461174c57600085156117345750838201355b600019600387901b1c1916600186901b1783556109da565b600083815260209020601f19861690835b8281101561177d578685013582556020948501946001909201910161175d565b508682101561179a5760001960f88860031b161c19848701351681555b505060018560011b0183555050505050565b81835281816020850137506000828201602090810191909152601f909101601f19169091010190565b6040815260006117e96040830186886117ac565b82810360208401526117fc8185876117ac565b979650505050505050565b634e487b7160e01b600052603260045260246000fd5b6000808335601e1984360301811261183457600080fd5b8301803591506001600160401b0382111561184e57600080fd5b6020019150368190038213156111e757600080fd5b634e487b7160e01b600052601160045260246000fd5b60006001820161188b5761188b611863565b5060010190565b602081526000610b336020830184866117ac565b60006001600160401b038083168181036118c2576118c2611863565b6001019392505050565b828152604060208201526000610b336040830184611377565b81516001600160401b038111156118fe576118fe6113d0565b6119128161190c8454611665565b8461169f565b602080601f831160018114611947576000841561192f5750858301515b600019600386901b1c1916600185901b1785556116e5565b600085815260208120601f198616915b8281101561197657888601518255948401946001909101908401611957565b50858210156119945787850151600019600388901b60f8161c191681555b5050505050600190811b01905550565b8381526040602082015260006119be6040830184866117ac565b95945050505050565b6000602082840312156119d957600080fd5b8151610732816114a9565b600080858511156119f457600080fd5b83861115611a0157600080fd5b5050820193919092039150565b8035602083101561033a57600019602084900360031b1b169291505056fea264697066735822122023167486787f221300479448a8faa42ec6c6c0a66705b41d30ad7dcfce531d9564736f6c63430008110033",
  "devdoc": {
    "kind": "dev",
    "methods": {
      "addr(bytes32)": {
        "params": {
          "node": "The FNS node to query."
        },
        "returns": {
          "_0": "The associated address."
        }
      },
      "clearRecords(bytes32)": {
        "params": {
          "node": "The node to update."
        }
      },
      "contenthash(bytes32)": {
        "params": {
          "node": "The FNS node to query."
        },
        "returns": {
          "_0": "The associated contenthash."
        }
      },
      "isApprovedForAll(address,address)": {
        "details": "See {IERC1155-isApprovedForAll}."
      },
      "name(bytes32)": {
        "params": {
          "node": "The FNS node to query."
        },
        "returns": {
          "_0": "The associated name."
        }
      },
      "setAddr(bytes32,address)": {
        "params": {
          "a": "The address to set.",
          "node": "The node to update."
        }
      },
      "setAddr(bytes32,uint256,bytes)": {
        "params": {
          "a": "The address to set.",
          "coinType": "The coin type of the address.",
          "node": "The node to update."
        }
      },
      "setAddrs(bytes32,uint256[],bytes[])": {
        "params": {
          "addrs": "The addresses to set.",
          "coinTypes": "The coin types of the addresses.",
          "node": "The node to update."
        }
      },
      "setApprovalForAll(address,bool)": {
        "details": "See {IERC1155-setApprovalForAll}."
      },
      "setContenthash(bytes32,bytes)": {
        "params": {
          "hash": "The contenthash to set",
          "node": "The node to update."
        }
      },
      "setName(bytes32,string)": {
        "params": {
          "node": "The node to update."
        }
      },
      "setText(bytes32,string,string)": {
        "params": {
          "key": "The key to set.",
          "node": "The node to update.",
          "value": "The text data value to set."
        }
      },
      "setTexts(bytes32,string[],string[])": {
        "params": {
          "keys": "The keys to set.",
          "node": "The node to update.",
          "values": "The text data value to set."
        }
      },
      "text(bytes32,string)": {
        "params": {
          "key": "The text data key to query.",
          "node": "The FNS node to query."
        },
        "returns": {
          "_0": "The associated text data."
        }
      }
    },
    "version": 1
  },
  "userdoc": {
    "kind": "user",
    "methods": {
      "addr(bytes32)": {
        "notice": "Returns the address associated with an FNS node."
      },
      "clearRecords(bytes32)": {
        "notice": "Increments the record version associated with an FNS node. May only be called by the owner of that node in the FNS registry."
      },
      "contenthash(bytes32)": {
        "notice": "Returns the contenthash associated with an FNS node."
      },
      "name(bytes32)": {
        "notice": "Returns the name associated with an FNS node, for reverse records. Defined in EIP181."
      },
      "setAddr(bytes32,address)": {
        "notice": "Sets the address associated with an FNS node. May only be called by the owner of that node in the FNS registry."
      },
      "setAddr(bytes32,uint256,bytes)": {
        "notice": "Sets the address associated with an FNS node. May only be called by the owner of that node in the FNS registry."
      },
      "setAddrs(bytes32,uint256[],bytes[])": {
        "notice": "Sets the addresses associated with FNS node. May only be called by the owner of that node in the FNS registry."
      },
      "setContenthash(bytes32,bytes)": {
        "notice": "Sets the contenthash associated with an FNS node. May only be called by the owner of that node in the FNS registry."
      },
      "setName(bytes32,string)": {
        "notice": "Sets the name associated with an FNS node, for reverse records. May only be called by the owner of that node in the FNS registry."
      },
      "setText(bytes32,string,string)": {
        "notice": "Sets the text data associated with an FNS node and key. May only be called by the owner of that node in the FNS registry."
      },
      "setTexts(bytes32,string[],string[])": {
        "notice": "Sets the text data associated with an FNS node and keys. May only be called by the owner of that node in the FNS registry."
      },
      "text(bytes32,string)": {
        "notice": "Returns the text data associated with an FNS node and key."
      }
    },
    "notice": "A simple resolver anyone can use; only allows the owner of a node to set its address.",
    "version": 1
  },
  "storageLayout": {
    "storage": [
      {
        "astId": 1654,
        "contract": "contracts/PublicResolver.sol:PublicResolver",
        "label": "recordVersions",
        "offset": 0,
        "slot": "0",
        "type": "t_mapping(t_bytes32,t_uint64)"
      },
      {
        "astId": 5751,
        "contract": "contracts/PublicResolver.sol:PublicResolver",
        "label": "versionable_addresses",
        "offset": 0,
        "slot": "1",
        "type": "t_mapping(t_uint64,t_mapping(t_bytes32,t_mapping(t_uint256,t_bytes_storage)))"
      },
      {
        "astId": 5992,
        "contract": "contracts/PublicResolver.sol:PublicResolver",
        "label": "versionable_hashes",
        "offset": 0,
        "slot": "2",
        "type": "t_mapping(t_uint64,t_mapping(t_bytes32,t_bytes_storage))"
      },
      {
        "astId": 6174,
        "contract": "contracts/PublicResolver.sol:PublicResolver",
        "label": "versionable_names",
        "offset": 0,
        "slot": "3",
        "type": "t_mapping(t_uint64,t_mapping(t_bytes32,t_string_storage))"
      },
      {
        "astId": 6257,
        "contract": "contracts/PublicResolver.sol:PublicResolver",
        "label": "versionable_texts",
        "offset": 0,
        "slot": "4",
        "type": "t_mapping(t_uint64,t_mapping(t_bytes32,t_mapping(t_string_memory_ptr,t_string_storage)))"
      },
      {
        "astId": 185,
        "contract": "contracts/PublicResolver.sol:PublicResolver",
        "label": "_operatorApprovals",
        "offset": 0,
        "slot": "5",
        "type": "t_mapping(t_address,t_mapping(t_address,t_bool))"
      }
    ],
    "types": {
      "t_address": {
        "encoding": "inplace",
        "label": "address",
        "numberOfBytes": "20"
      },
      "t_bool": {
        "encoding": "inplace",
        "label": "bool",
        "numberOfBytes": "1"
      },
      "t_bytes32": {
        "encoding": "inplace",
        "label": "bytes32",
        "numberOfBytes": "32"
      },
      "t_bytes_storage": {
        "encoding": "bytes",
        "label": "bytes",
        "numberOfBytes": "32"
      },
      "t_mapping(t_address,t_bool)": {
        "encoding": "mapping",
        "key": "t_address",
        "label": "mapping(address => bool)",
        "numberOfBytes": "32",
        "value": "t_bool"
      },
      "t_mapping(t_address,t_mapping(t_address,t_bool))": {
        "encoding": "mapping",
        "key": "t_address",
        "label": "mapping(address => mapping(address => bool))",
        "numberOfBytes": "32",
        "value": "t_mapping(t_address,t_bool)"
      },
      "t_mapping(t_bytes32,t_bytes_storage)": {
        "encoding": "mapping",
        "key": "t_bytes32",
        "label": "mapping(bytes32 => bytes)",
        "numberOfBytes": "32",
        "value": "t_bytes_storage"
      },
      "t_mapping(t_bytes32,t_mapping(t_string_memory_ptr,t_string_storage))": {
        "encoding": "mapping",
        "key": "t_bytes32",
        "label": "mapping(bytes32 => mapping(string => string))",
        "numberOfBytes": "32",
        "value": "t_mapping(t_string_memory_ptr,t_string_storage)"
      },
      "t_mapping(t_bytes32,t_mapping(t_uint256,t_bytes_storage))": {
        "encoding": "mapping",
        "key": "t_bytes32",
        "label": "mapping(bytes32 => mapping(uint256 => bytes))",
        "numberOfBytes": "32",
        "value": "t_mapping(t_uint256,t_bytes_storage)"
      },
      "t_mapping(t_bytes32,t_string_storage)": {
        "encoding": "mapping",
        "key": "t_bytes32",
        "label": "mapping(bytes32 => string)",
        "numberOfBytes": "32",
        "value": "t_string_storage"
      },
      "t_mapping(t_bytes32,t_uint64)": {
        "encoding": "mapping",
        "key": "t_bytes32",
        "label": "mapping(bytes32 => uint64)",
        "numberOfBytes": "32",
        "value": "t_uint64"
      },
      "t_mapping(t_string_memory_ptr,t_string_storage)": {
        "encoding": "mapping",
        "key": "t_string_memory_ptr",
        "label": "mapping(string => string)",
        "numberOfBytes": "32",
        "value": "t_string_storage"
      },
      "t_mapping(t_uint256,t_bytes_storage)": {
        "encoding": "mapping",
        "key": "t_uint256",
        "label": "mapping(uint256 => bytes)",
        "numberOfBytes": "32",
        "value": "t_bytes_storage"
      },
      "t_mapping(t_uint64,t_mapping(t_bytes32,t_bytes_storage))": {
        "encoding": "mapping",
        "key": "t_uint64",
        "label": "mapping(uint64 => mapping(bytes32 => bytes))",
        "numberOfBytes": "32",
        "value": "t_mapping(t_bytes32,t_bytes_storage)"
      },
      "t_mapping(t_uint64,t_mapping(t_bytes32,t_mapping(t_string_memory_ptr,t_string_storage)))": {
        "encoding": "mapping",
        "key": "t_uint64",
        "label": "mapping(uint64 => mapping(bytes32 => mapping(string => string)))",
        "numberOfBytes": "32",
        "value": "t_mapping(t_bytes32,t_mapping(t_string_memory_ptr,t_string_storage))"
      },
      "t_mapping(t_uint64,t_mapping(t_bytes32,t_mapping(t_uint256,t_bytes_storage)))": {
        "encoding": "mapping",
        "key": "t_uint64",
        "label": "mapping(uint64 => mapping(bytes32 => mapping(uint256 => bytes)))",
        "numberOfBytes": "32",
        "value": "t_mapping(t_bytes32,t_mapping(t_uint256,t_bytes_storage))"
      },
      "t_mapping(t_uint64,t_mapping(t_bytes32,t_string_storage))": {
        "encoding": "mapping",
        "key": "t_uint64",
        "label": "mapping(uint64 => mapping(bytes32 => string))",
        "numberOfBytes": "32",
        "value": "t_mapping(t_bytes32,t_string_storage)"
      },
      "t_string_memory_ptr": {
        "encoding": "bytes",
        "label": "string",
        "numberOfBytes": "32"
      },
      "t_string_storage": {
        "encoding": "bytes",
        "label": "string",
        "numberOfBytes": "32"
      },
      "t_uint256": {
        "encoding": "inplace",
        "label": "uint256",
        "numberOfBytes": "32"
      },
      "t_uint64": {
        "encoding": "inplace",
        "label": "uint64",
        "numberOfBytes": "8"
      }
    }
  }
}