{
  "address": "0xc49833d827b01e1465c65221A59885Fb71614a26",
  "abi": [
    {
      "inputs": [
        {
          "internalType": "contract FNS",
          "name": "_fns",
          "type": "address"
        }
      ],
      "stateMutability": "nonpayable",
      "type": "constructor"
    },
    {
      "anonymous": false,
      "inputs": [
        {
          "indexed": true,
          "internalType": "address",
          "name": "controller",
          "type": "address"
        },
        {
          "indexed": false,
          "internalType": "bool",
          "name": "enabled",
          "type": "bool"
        }
      ],
      "name": "ControllerChanged",
      "type": "event"
    },
    {
      "anonymous": false,
      "inputs": [
        {
          "indexed": true,
          "internalType": "contract NameResolver",
          "name": "resolver",
          "type": "address"
        }
      ],
      "name": "DefaultResolverChanged",
      "type": "event"
    },
    {
      "anonymous": false,
      "inputs": [
        {
          "indexed": true,
          "internalType": "address",
          "name": "previousOwner",
          "type": "address"
        },
        {
          "indexed": true,
          "internalType": "address",
          "name": "newOwner",
          "type": "address"
        }
      ],
      "name": "OwnershipTransferred",
      "type": "event"
    },
    {
      "anonymous": false,
      "inputs": [
        {
          "indexed": true,
          "internalType": "address",
          "name": "addr",
          "type": "address"
        },
        {
          "indexed": true,
          "internalType": "bytes32",
          "name": "node",
          "type": "bytes32"
        }
      ],
      "name": "ReverseClaimed",
      "type": "event"
    },
    {
      "inputs": [
        {
          "internalType": "address",
          "name": "_owner",
          "type": "address"
        }
      ],
      "name": "claim",
      "outputs": [
        {
          "internalType": "bytes32",
          "name": "",
          "type": "bytes32"
        }
      ],
      "stateMutability": "nonpayable",
      "type": "function"
    },
    {
      "inputs": [
        {
          "internalType": "address",
          "name": "addr",
          "type": "address"
        },
        {
          "internalType": "address",
          "name": "_owner",
          "type": "address"
        },
        {
          "internalType": "address",
          "name": "resolver",
          "type": "address"
        }
      ],
      "name": "claimForAddr",
      "outputs": [
        {
          "internalType": "bytes32",
          "name": "",
          "type": "bytes32"
        }
      ],
      "stateMutability": "nonpayable",
      "type": "function"
    },
    {
      "inputs": [
        {
          "internalType": "address",
          "name": "_owner",
          "type": "address"
        },
        {
          "internalType": "address",
          "name": "resolver",
          "type": "address"
        }
      ],
      "name": "claimWithResolver",
      "outputs": [
        {
          "internalType": "bytes32",
          "name": "",
          "type": "bytes32"
        }
      ],
      "stateMutability": "nonpayable",
      "type": "function"
    },
    {
      "inputs": [
        {
          "internalType": "address",
          "name": "",
          "type": "address"
        }
      ],
      "name": "controllers",
      "outputs": [
        {
          "internalType": "bool",
          "name": "",
          "type": "bool"
        }
      ],
      "stateMutability": "view",
      "type": "function"
    },
    {
      "inputs": [],
      "name": "defaultResolver",
      "outputs": [
        {
          "internalType": "contract NameResolver",
          "name": "",
          "type": "address"
        }
      ],
      "stateMutability": "view",
      "type": "function"
    },
    {
      "inputs": [],
      "name": "fns",
      "outputs": [
        {
          "internalType": "contract FNS",
          "name": "",
          "type": "address"
        }
      ],
      "stateMutability": "view",
      "type": "function"
    },
    {
      "inputs": [
        {
          "internalType": "address",
          "name": "addr",
          "type": "address"
        }
      ],
      "name": "node",
      "outputs": [
        {
          "internalType": "bytes32",
          "name": "",
          "type": "bytes32"
        }
      ],
      "stateMutability": "pure",
      "type": "function"
    },
    {
      "inputs": [],
      "name": "owner",
      "outputs": [
        {
          "internalType": "address",
          "name": "",
          "type": "address"
        }
      ],
      "stateMutability": "view",
      "type": "function"
    },
    {
      "inputs": [],
      "name": "renounceOwnership",
      "outputs": [],
      "stateMutability": "nonpayable",
      "type": "function"
    },
    {
      "inputs": [
        {
          "internalType": "address",
          "name": "controller",
          "type": "address"
        },
        {
          "internalType": "bool",
          "name": "enabled",
          "type": "bool"
        }
      ],
      "name": "setController",
      "outputs": [],
      "stateMutability": "nonpayable",
      "type": "function"
    },
    {
      "inputs": [
        {
          "internalType": "address",
          "name": "resolver",
          "type": "address"
        }
      ],
      "name": "setDefaultResolver",
      "outputs": [],
      "stateMutability": "nonpayable",
      "type": "function"
    },
    {
      "inputs": [
        {
          "internalType": "string",
          "name": "name",
          "type": "string"
        }
      ],
      "name": "setName",
      "outputs": [
        {
          "internalType": "bytes32",
          "name": "",
          "type": "bytes32"
        }
      ],
      "stateMutability": "nonpayable",
      "type": "function"
    },
    {
      "inputs": [
        {
          "internalType": "address",
          "name": "addr",
          "type": "address"
        },
        {
          "internalType": "address",
          "name": "_owner",
          "type": "address"
        },
        {
          "internalType": "address",
          "name": "resolver",
          "type": "address"
        },
        {
          "internalType": "string",
          "name": "name",
          "type": "string"
        }
      ],
      "name": "setNameForAddr",
      "outputs": [
        {
          "internalType": "bytes32",
          "name": "",
          "type": "bytes32"
        }
      ],
      "stateMutability": "nonpayable",
      "type": "function"
    },
    {
      "inputs": [
        {
          "internalType": "address",
          "name": "newOwner",
          "type": "address"
        }
      ],
      "name": "transferOwnership",
      "outputs": [],
      "stateMutability": "nonpayable",
      "type": "function"
    }
  ],
  "transactionHash": "0x740c04457402eeecd6110efeb5f18689ed7043e09385a496eb030a829ca77df1",
  "args": [
    "0x916915d0d41EaA8AAEd70b2A5Fb006FFc213961b"
  ],
  "numDeployments": 1,
  "solcInputHash": "8e4f1a12a8d63d08cb226f43a23260a9",
  "bytecode": "0x60a060405234801561001057600080fd5b50604051610dbc380380610dbc83398101604081905261002f91610099565b61003833610049565b6001600160a01b03166080526100c9565b600080546001600160a01b038381166001600160a01b0319831681178455604051919092169283917f8be0079c531659141344cd1fd0a4f28419497f9722a3daafe3b4186f6b6457e09190a35050565b6000602082840312156100ab57600080fd5b81516001600160a01b03811681146100c257600080fd5b9392505050565b608051610cca6100f260003960008181610199015281816102d701526104d50152610cca6000f3fe608060405234801561001057600080fd5b50600436106100ea5760003560e01c8063b382e4c51161008c578063c66485b211610066578063c66485b2146101e1578063da8c229e146101f4578063e0dba60f14610227578063f2fde38b1461023a57600080fd5b8063b382e4c514610194578063bffbe61c146101bb578063c47f0027146101ce57600080fd5b8063715018a6116100c8578063715018a61461013b5780637a806d6b14610145578063828eab0e146101585780638da5cb5b1461018357600080fd5b80630f5a5466146100ef5780631e83409a146101155780636566963114610128575b600080fd5b6101026100fd3660046109b6565b61024d565b6040519081526020015b60405180910390f35b6101026101233660046109ef565b610261565b610102610136366004610a0c565b610283565b61014361053c565b005b610102610153366004610a6d565b610550565b60025461016b906001600160a01b031681565b6040516001600160a01b03909116815260200161010c565b6000546001600160a01b031661016b565b61016b7f000000000000000000000000000000000000000000000000000000000000000081565b6101026101c93660046109ef565b6105cb565b6101026101dc366004610b56565b610626565b6101436101ef3660046109ef565b610677565b6102176102023660046109ef565b60016020526000908152604090205460ff1681565b604051901515815260200161010c565b610143610235366004610bd6565b610738565b6101436102483660046109ef565b61079f565b600061025a338484610283565b9392505050565b60025460009061027d90339084906001600160a01b0316610283565b92915050565b6000836001600160a01b0381163314806102ac57503360009081526001602052604090205460ff165b80610342575060405163e985e9c560e01b81526001600160a01b0382811660048301523360248301527f0000000000000000000000000000000000000000000000000000000000000000169063e985e9c590604401602060405180830381865afa15801561031e573d6000803e3d6000fd5b505050506040513d601f19601f820116820180604052508101906103429190610c04565b80610351575061035181610818565b6103ee5760405162461bcd60e51b815260206004820152605b60248201527f526576657273655265676973747261723a2043616c6c6572206973206e6f742060448201527f6120636f6e74726f6c6c6572206f7220617574686f726973656420627920616460648201527f6472657373206f7220746865206164647265737320697473656c660000000000608482015260a4015b60405180910390fd5b60006103f986610891565b604080517f91d1777781884d03a6757a803996e38de2a42967fb37eeaca72729271025a9e2602080830191909152818301849052825180830384018152606090920192839052815191012091925081906001600160a01b038916907f6ada868dd3058cf77a48a74489fd7963688e5464b2b0fa957ace976243270e9290600090a36040516305ef2c7f60e41b81527f91d1777781884d03a6757a803996e38de2a42967fb37eeaca72729271025a9e26004820152602481018390526001600160a01b0387811660448301528681166064830152600060848301527f00000000000000000000000000000000000000000000000000000000000000001690635ef2c7f09060a401600060405180830381600087803b15801561051957600080fd5b505af115801561052d573d6000803e3d6000fd5b50929998505050505050505050565b6105446108f7565b61054e6000610951565b565b60008061055e868686610283565b604051637737221360e01b81529091506001600160a01b0385169063773722139061058f9084908790600401610c21565b600060405180830381600087803b1580156105a957600080fd5b505af11580156105bd573d6000803e3d6000fd5b509298975050505050505050565b60007f91d1777781884d03a6757a803996e38de2a42967fb37eeaca72729271025a9e26105f783610891565b604080516020810193909352820152606001604051602081830303815290604052805190602001209050919050565b600254604080516020601f850181900481028201810190925283815260009261025a92339283926001600160a01b031691889088908190840183828082843760009201919091525061055092505050565b61067f6108f7565b6001600160a01b0381166106ee5760405162461bcd60e51b815260206004820152603060248201527f526576657273655265676973747261723a205265736f6c76657220616464726560448201526f07373206d757374206e6f7420626520360841b60648201526084016103e5565b600280546001600160a01b0319166001600160a01b0383169081179091556040517feae17a84d9eb83d8c8eb317f9e7d64857bc363fa51674d996c023f4340c577cf90600090a250565b6107406108f7565b6001600160a01b038216600081815260016020908152604091829020805460ff191685151590811790915591519182527f4c97694570a07277810af7e5669ffd5f6a2d6b74b6e9a274b8b870fd5114cf87910160405180910390a25050565b6107a76108f7565b6001600160a01b03811661080c5760405162461bcd60e51b815260206004820152602660248201527f4f776e61626c653a206e6577206f776e657220697320746865207a65726f206160448201526564647265737360d01b60648201526084016103e5565b61081581610951565b50565b6000816001600160a01b0316638da5cb5b6040518163ffffffff1660e01b8152600401602060405180830381865afa925050508015610874575060408051601f3d908101601f1916820190925261087191810190610c77565b60015b61088057506000919050565b6001600160a01b0316331492915050565b600060285b80156108eb57600019016f181899199a1a9b1b9c1cb0b131b232b360811b600f84161a8153601090920491600019016f181899199a1a9b1b9c1cb0b131b232b360811b600f84161a8153601083049250610896565b50506028600020919050565b6000546001600160a01b0316331461054e5760405162461bcd60e51b815260206004820181905260248201527f4f776e61626c653a2063616c6c6572206973206e6f7420746865206f776e657260448201526064016103e5565b600080546001600160a01b038381166001600160a01b0319831681178455604051919092169283917f8be0079c531659141344cd1fd0a4f28419497f9722a3daafe3b4186f6b6457e09190a35050565b6001600160a01b038116811461081557600080fd5b600080604083850312156109c957600080fd5b82356109d4816109a1565b915060208301356109e4816109a1565b809150509250929050565b600060208284031215610a0157600080fd5b813561025a816109a1565b600080600060608486031215610a2157600080fd5b8335610a2c816109a1565b92506020840135610a3c816109a1565b91506040840135610a4c816109a1565b809150509250925092565b634e487b7160e01b600052604160045260246000fd5b60008060008060808587031215610a8357600080fd5b8435610a8e816109a1565b93506020850135610a9e816109a1565b92506040850135610aae816109a1565b9150606085013567ffffffffffffffff80821115610acb57600080fd5b818701915087601f830112610adf57600080fd5b813581811115610af157610af1610a57565b604051601f8201601f19908116603f01168101908382118183101715610b1957610b19610a57565b816040528281528a6020848701011115610b3257600080fd5b82602086016020830137600060208483010152809550505050505092959194509250565b60008060208385031215610b6957600080fd5b823567ffffffffffffffff80821115610b8157600080fd5b818501915085601f830112610b9557600080fd5b813581811115610ba457600080fd5b866020828501011115610bb657600080fd5b60209290920196919550909350505050565b801515811461081557600080fd5b60008060408385031215610be957600080fd5b8235610bf4816109a1565b915060208301356109e481610bc8565b600060208284031215610c1657600080fd5b815161025a81610bc8565b82815260006020604081840152835180604085015260005b81811015610c5557858101830151858201606001528201610c39565b506000606082860101526060601f19601f830116850101925050509392505050565b600060208284031215610c8957600080fd5b815161025a816109a156fea2646970667358221220359335439f76ef1f182117a1ee45935bde637de0e655090f3b2007aee41da40364736f6c63430008110033",
  "devdoc": {
    "kind": "dev",
    "methods": {
      "claim(address)": {
        "details": "Transfers ownership of the reverse FNS record associated with the      calling account.",
        "params": {
          "_owner": "The address to set as the owner of the reverse record in FNS."
        },
        "returns": {
          "_0": "The FNS node hash of the reverse record."
        }
      },
      "claimForAddr(address,address,address)": {
        "details": "Transfers ownership of the reverse FNS record associated with the      calling account.",
        "params": {
          "_owner": "The address to set as the owner of the reverse record in FNS.",
          "addr": "The reverse record to set",
          "resolver": "The resolver of the reverse node"
        },
        "returns": {
          "_0": "The FNS node hash of the reverse record."
        }
      },
      "claimWithResolver(address,address)": {
        "details": "Transfers ownership of the reverse FNS record associated with the      calling account.",
        "params": {
          "_owner": "The address to set as the owner of the reverse record in FNS.",
          "resolver": "The address of the resolver to set; 0 to leave unchanged."
        },
        "returns": {
          "_0": "The FNS node hash of the reverse record."
        }
      },
      "constructor": {
        "details": "Constructor",
        "params": {
          "_fns": "The address of the FNS registry."
        }
      },
      "node(address)": {
        "details": "Returns the node hash for a given account's reverse records.",
        "params": {
          "addr": "The address to hash"
        },
        "returns": {
          "_0": "The FNS node hash."
        }
      },
      "owner()": {
        "details": "Returns the address of the current owner."
      },
      "renounceOwnership()": {
        "details": "Leaves the contract without owner. It will not be possible to call `onlyOwner` functions anymore. Can only be called by the current owner. NOTE: Renouncing ownership will leave the contract without an owner, thereby removing any functionality that is only available to the owner."
      },
      "setName(string)": {
        "details": "Sets the `name()` record for the reverse FNS record associated with the calling account. First updates the resolver to the default reverse resolver if necessary.",
        "params": {
          "name": "The name to set for this address."
        },
        "returns": {
          "_0": "The FNS node hash of the reverse record."
        }
      },
      "setNameForAddr(address,address,address,string)": {
        "details": "Sets the `name()` record for the reverse FNS record associated with the account provided. Updates the resolver to a designated resolver Only callable by controllers and authorised users",
        "params": {
          "_owner": "The owner of the reverse node",
          "addr": "The reverse record to set",
          "name": "The name to set for this address.",
          "resolver": "The resolver of the reverse node"
        },
        "returns": {
          "_0": "The FNS node hash of the reverse record."
        }
      },
      "transferOwnership(address)": {
        "details": "Transfers ownership of the contract to a new account (`newOwner`). Can only be called by the current owner."
      }
    },
    "version": 1
  },
  "userdoc": {
    "kind": "user",
    "methods": {},
    "version": 1
  },
  "storageLayout": {
    "storage": [
      {
        "astId": 6326,
        "contract": "contracts/ReverseRegistrar.sol:ReverseRegistrar",
        "label": "_owner",
        "offset": 0,
        "slot": "0",
        "type": "t_address"
      },
      {
        "astId": 3808,
        "contract": "contracts/ReverseRegistrar.sol:ReverseRegistrar",
        "label": "controllers",
        "offset": 0,
        "slot": "1",
        "type": "t_mapping(t_address,t_bool)"
      },
      {
        "astId": 2549,
        "contract": "contracts/ReverseRegistrar.sol:ReverseRegistrar",
        "label": "defaultResolver",
        "offset": 0,
        "slot": "2",
        "type": "t_contract(NameResolver)7440"
      }
    ],
    "types": {
      "t_address": {
        "encoding": "inplace",
        "label": "address",
        "numberOfBytes": "20"
      },
      "t_bool": {
        "encoding": "inplace",
        "label": "bool",
        "numberOfBytes": "1"
      },
      "t_contract(NameResolver)7440": {
        "encoding": "inplace",
        "label": "contract NameResolver",
        "numberOfBytes": "20"
      },
      "t_mapping(t_address,t_bool)": {
        "encoding": "mapping",
        "key": "t_address",
        "label": "mapping(address => bool)",
        "numberOfBytes": "32",
        "value": "t_bool"
      }
    }
  }
}